{
  "contractName": "carSharing",
  "abi": [
    {
      "anonymous": false,
      "inputs": [
        {
          "indexed": true,
          "internalType": "address",
          "name": "",
          "type": "address"
        },
        {
          "indexed": true,
          "internalType": "bytes32",
          "name": "token",
          "type": "bytes32"
        },
        {
          "indexed": false,
          "internalType": "bytes32",
          "name": "location",
          "type": "bytes32"
        },
        {
          "indexed": false,
          "internalType": "uint256",
          "name": "price",
          "type": "uint256"
        }
      ],
      "name": "E_carAvailable",
      "type": "event"
    },
    {
      "anonymous": false,
      "inputs": [
        {
          "indexed": true,
          "internalType": "address",
          "name": "",
          "type": "address"
        },
        {
          "indexed": false,
          "internalType": "bytes32",
          "name": "hashlock",
          "type": "bytes32"
        }
      ],
      "name": "E_carBooking",
      "type": "event"
    },
    {
      "anonymous": false,
      "inputs": [
        {
          "indexed": true,
          "internalType": "address",
          "name": "",
          "type": "address"
        },
        {
          "indexed": true,
          "internalType": "bytes32",
          "name": "encryptedPreimage",
          "type": "bytes32"
        },
        {
          "indexed": true,
          "internalType": "bytes32",
          "name": "newToken",
          "type": "bytes32"
        },
        {
          "indexed": false,
          "internalType": "bytes32",
          "name": "location",
          "type": "bytes32"
        }
      ],
      "name": "E_carPaid",
      "type": "event"
    },
    {
      "anonymous": false,
      "inputs": [
        {
          "indexed": true,
          "internalType": "address",
          "name": "",
          "type": "address"
        },
        {
          "indexed": false,
          "internalType": "bytes32",
          "name": "details",
          "type": "bytes32"
        }
      ],
      "name": "E_deployCar",
      "type": "event"
    },
    {
      "anonymous": false,
      "inputs": [
        {
          "indexed": true,
          "internalType": "address",
          "name": "",
          "type": "address"
        },
        {
          "indexed": false,
          "internalType": "bytes32",
          "name": "ppc",
          "type": "bytes32"
        }
      ],
      "name": "E_deployRenter",
      "type": "event"
    },
    {
      "anonymous": false,
      "inputs": [
        {
          "indexed": true,
          "internalType": "address",
          "name": "",
          "type": "address"
        },
        {
          "indexed": true,
          "internalType": "bytes32",
          "name": "newToken",
          "type": "bytes32"
        },
        {
          "indexed": false,
          "internalType": "bytes32",
          "name": "location",
          "type": "bytes32"
        }
      ],
      "name": "E_forcedEnd",
      "type": "event"
    },
    {
      "anonymous": false,
      "inputs": [
        {
          "indexed": true,
          "internalType": "address",
          "name": "",
          "type": "address"
        },
        {
          "indexed": true,
          "internalType": "bytes32",
          "name": "hashlock",
          "type": "bytes32"
        },
        {
          "indexed": true,
          "internalType": "bytes32",
          "name": "secretLink",
          "type": "bytes32"
        }
      ],
      "name": "E_renterBooking",
      "type": "event"
    },
    {
      "anonymous": false,
      "inputs": [
        {
          "indexed": true,
          "internalType": "address",
          "name": "",
          "type": "address"
        }
      ],
      "name": "E_renterPaid",
      "type": "event"
    },
    {
      "inputs": [
        {
          "internalType": "bytes32",
          "name": "_ppc",
          "type": "bytes32"
        },
        {
          "internalType": "bytes32",
          "name": "_r",
          "type": "bytes32"
        },
        {
          "internalType": "bytes32",
          "name": "_s",
          "type": "bytes32"
        },
        {
          "internalType": "uint8",
          "name": "_v",
          "type": "uint8"
        }
      ],
      "name": "deployRenter",
      "outputs": [],
      "stateMutability": "payable",
      "type": "function",
      "payable": true
    },
    {
      "inputs": [
        {
          "internalType": "address",
          "name": "_address",
          "type": "address"
        },
        {
          "internalType": "bytes32",
          "name": "_details",
          "type": "bytes32"
        },
        {
          "internalType": "uint256",
          "name": "_price",
          "type": "uint256"
        }
      ],
      "name": "deployCar",
      "outputs": [],
      "stateMutability": "payable",
      "type": "function",
      "payable": true
    },
    {
      "inputs": [
        {
          "internalType": "bytes32",
          "name": "_token",
          "type": "bytes32"
        },
        {
          "internalType": "bytes32",
          "name": "_location",
          "type": "bytes32"
        }
      ],
      "name": "validateCar",
      "outputs": [],
      "stateMutability": "nonpayable",
      "type": "function"
    },
    {
      "inputs": [
        {
          "internalType": "address",
          "name": "_car",
          "type": "address"
        },
        {
          "internalType": "bytes32",
          "name": "_secretLink",
          "type": "bytes32"
        },
        {
          "internalType": "bytes32",
          "name": "_r",
          "type": "bytes32"
        },
        {
          "internalType": "bytes32",
          "name": "_s",
          "type": "bytes32"
        },
        {
          "internalType": "uint8",
          "name": "_v",
          "type": "uint8"
        },
        {
          "components": [
            {
              "internalType": "address",
              "name": "destination",
              "type": "address"
            },
            {
              "internalType": "bool",
              "name": "hashlock",
              "type": "bool"
            },
            {
              "internalType": "uint256",
              "name": "content",
              "type": "uint256"
            }
          ],
          "internalType": "struct carSharing.RingMessage",
          "name": "_message",
          "type": "tuple"
        }
      ],
      "name": "renterBooking",
      "outputs": [],
      "stateMutability": "nonpayable",
      "type": "function"
    },
    {
      "inputs": [
        {
          "internalType": "address",
          "name": "_renter",
          "type": "address"
        },
        {
          "internalType": "bytes32",
          "name": "_r",
          "type": "bytes32"
        },
        {
          "internalType": "bytes32",
          "name": "_s",
          "type": "bytes32"
        },
        {
          "internalType": "uint8",
          "name": "_v",
          "type": "uint8"
        },
        {
          "components": [
            {
              "internalType": "address",
              "name": "destination",
              "type": "address"
            },
            {
              "internalType": "bool",
              "name": "hashlock",
              "type": "bool"
            },
            {
              "internalType": "uint256",
              "name": "content",
              "type": "uint256"
            }
          ],
          "internalType": "struct carSharing.RingMessage",
          "name": "_message",
          "type": "tuple"
        }
      ],
      "name": "carBooking",
      "outputs": [],
      "stateMutability": "nonpayable",
      "type": "function"
    },
    {
      "inputs": [
        {
          "internalType": "bytes32",
          "name": "_preimage",
          "type": "bytes32"
        },
        {
          "internalType": "bytes32",
          "name": "_encryptedPreimage",
          "type": "bytes32"
        },
        {
          "internalType": "bytes32",
          "name": "_newToken",
          "type": "bytes32"
        },
        {
          "internalType": "bytes32",
          "name": "_location",
          "type": "bytes32"
        },
        {
          "internalType": "bytes32",
          "name": "_r",
          "type": "bytes32"
        },
        {
          "internalType": "bytes32",
          "name": "_s",
          "type": "bytes32"
        },
        {
          "internalType": "uint8",
          "name": "_v",
          "type": "uint8"
        },
        {
          "components": [
            {
              "internalType": "address",
              "name": "destination",
              "type": "address"
            },
            {
              "internalType": "bool",
              "name": "hashlock",
              "type": "bool"
            },
            {
              "internalType": "uint256",
              "name": "content",
              "type": "uint256"
            }
          ],
          "internalType": "struct carSharing.RingMessage",
          "name": "_msg",
          "type": "tuple"
        }
      ],
      "name": "carPayment",
      "outputs": [],
      "stateMutability": "nonpayable",
      "type": "function"
    },
    {
      "inputs": [
        {
          "internalType": "bytes32",
          "name": "_preimage",
          "type": "bytes32"
        },
        {
          "internalType": "bytes32",
          "name": "_r",
          "type": "bytes32"
        },
        {
          "internalType": "bytes32",
          "name": "_s",
          "type": "bytes32"
        },
        {
          "internalType": "uint8",
          "name": "_v",
          "type": "uint8"
        },
        {
          "components": [
            {
              "internalType": "address",
              "name": "destination",
              "type": "address"
            },
            {
              "internalType": "bool",
              "name": "hashlock",
              "type": "bool"
            },
            {
              "internalType": "uint256",
              "name": "content",
              "type": "uint256"
            }
          ],
          "internalType": "struct carSharing.RingMessage",
          "name": "_msg",
          "type": "tuple"
        }
      ],
      "name": "renterPayment",
      "outputs": [],
      "stateMutability": "nonpayable",
      "type": "function"
    },
    {
      "inputs": [
        {
          "internalType": "bytes32",
          "name": "_r",
          "type": "bytes32"
        },
        {
          "internalType": "bytes32",
          "name": "_s",
          "type": "bytes32"
        },
        {
          "internalType": "uint8",
          "name": "_v",
          "type": "uint8"
        },
        {
          "components": [
            {
              "internalType": "address",
              "name": "destination",
              "type": "address"
            },
            {
              "internalType": "bool",
              "name": "hashlock",
              "type": "bool"
            },
            {
              "internalType": "uint256",
              "name": "content",
              "type": "uint256"
            }
          ],
          "internalType": "struct carSharing.RingMessage",
          "name": "_msg",
          "type": "tuple"
        }
      ],
      "name": "cancelBooking",
      "outputs": [],
      "stateMutability": "nonpayable",
      "type": "function"
    },
    {
      "inputs": [
        {
          "internalType": "address",
          "name": "_renter",
          "type": "address"
        },
        {
          "internalType": "bytes32",
          "name": "_newToken",
          "type": "bytes32"
        },
        {
          "internalType": "bytes32",
          "name": "_location",
          "type": "bytes32"
        }
      ],
      "name": "forceEnd",
      "outputs": [],
      "stateMutability": "nonpayable",
      "type": "function"
    },
    {
      "inputs": [
        {
          "internalType": "address",
          "name": "_car",
          "type": "address"
        }
      ],
      "name": "getBalanceOwner",
      "outputs": [
        {
          "internalType": "uint256",
          "name": "",
          "type": "uint256"
        }
      ],
      "stateMutability": "view",
      "type": "function",
      "constant": true
    },
    {
      "inputs": [],
      "name": "getBalanceRenter",
      "outputs": [
        {
          "internalType": "uint256",
          "name": "",
          "type": "uint256"
        }
      ],
      "stateMutability": "view",
      "type": "function",
      "constant": true
    },
    {
      "inputs": [
        {
          "internalType": "address",
          "name": "_car",
          "type": "address"
        }
      ],
      "name": "withdrawBalanceOwner",
      "outputs": [],
      "stateMutability": "nonpayable",
      "type": "function"
    },
    {
      "inputs": [],
      "name": "withdrawBalanceRenter",
      "outputs": [],
      "stateMutability": "nonpayable",
      "type": "function"
    },
    {
      "inputs": [
        {
          "internalType": "address",
          "name": "_car",
          "type": "address"
        }
      ],
      "name": "fundBalanceCar",
      "outputs": [],
      "stateMutability": "payable",
      "type": "function",
      "payable": true
    },
    {
      "inputs": [],
      "name": "fundBalanceRenter",
      "outputs": [],
      "stateMutability": "payable",
      "type": "function",
      "payable": true
    }
  ],
  "bytecode": "0x6080604052674563918244f40000600e5562015180600f556000601060006101000a81548173ffffffffffffffffffffffffffffffffffffffff021916908373ffffffffffffffffffffffffffffffffffffffff16021790555034801561006557600080fd5b5061387c806100756000396000f3fe6080604052600436106100e85760003560e01c806330dbfe141161008a57806388468ea71161005957806388468ea71461025a578063995ceb19146102975780639e7ecb6d146102c0578063bc31a50f146102e9576100e8565b806330dbfe14146101e2578063441d1d531461020b57806344b919be1461022757806368440c2014610231576100e8565b806316c1399d116100c657806316c1399d1461014b578063182ccca614610174578063216bf95e1461019d57806325b03acb146101b9576100e8565b80630d6184d0146100ed57806313032bfc14610109578063149074a214610134575b600080fd5b61010760048036038101906101029190612aab565b610312565b005b34801561011557600080fd5b5061011e6104b0565b60405161012b91906136da565b60405180910390f35b34801561014057600080fd5b506101496104f6565b005b34801561015757600080fd5b50610172600480360381019061016d9190612b36565b610604565b005b34801561018057600080fd5b5061019b60048036038101906101969190612cc2565b610a3d565b005b6101b760048036038101906101b29190612be8565b610db6565b005b3480156101c557600080fd5b506101e060048036038101906101db91906129aa565b6110e5565b005b3480156101ee57600080fd5b506102096004803603810190610204919061295b565b611500565b005b61022560048036038101906102209190612932565b61184e565b005b61022f6119fc565b005b34801561023d57600080fd5b5061025860048036038101906102539190612afa565b611b5c565b005b34801561026657600080fd5b50610281600480360381019061027c9190612932565b611d86565b60405161028e91906136da565b60405180910390f35b3480156102a357600080fd5b506102be60048036038101906102b99190612a34565b611dcf565b005b3480156102cc57600080fd5b506102e760048036038101906102e29190612932565b6121c6565b005b3480156102f557600080fd5b50610310600480360381019061030b9190612c4b565b612430565b005b600e54341015610357576040517f08c379a000000000000000000000000000000000000000000000000000000000815260040161034e9061355a565b60405180910390fd5b34600560008573ffffffffffffffffffffffffffffffffffffffff1673ffffffffffffffffffffffffffffffffffffffff1681526020019081526020016000208190555033600960008573ffffffffffffffffffffffffffffffffffffffff1673ffffffffffffffffffffffffffffffffffffffff16815260200190815260200160002060006101000a81548173ffffffffffffffffffffffffffffffffffffffff021916908373ffffffffffffffffffffffffffffffffffffffff16021790555080600760008573ffffffffffffffffffffffffffffffffffffffff1673ffffffffffffffffffffffffffffffffffffffff168152602001908152602001600020819055508273ffffffffffffffffffffffffffffffffffffffff167f37a36774bff66c0945c883c781695c83a64acd1e8915e2787a57ab16c17e3578836040516104a391906133b1565b60405180910390a2505050565b60008060003373ffffffffffffffffffffffffffffffffffffffff1673ffffffffffffffffffffffffffffffffffffffff16815260200190815260200160002054905090565b60018060003373ffffffffffffffffffffffffffffffffffffffff1673ffffffffffffffffffffffffffffffffffffffff1681526020019081526020016000205414610577576040517f08c379a000000000000000000000000000000000000000000000000000000000815260040161056e9061369a565b60405180910390fd5b60008060003373ffffffffffffffffffffffffffffffffffffffff1673ffffffffffffffffffffffffffffffffffffffff1681526020019081526020016000205490503373ffffffffffffffffffffffffffffffffffffffff166108fc829081150290604051600060405180830381858888f19350505050158015610600573d6000803e3d6000fd5b5050565b6002600660003373ffffffffffffffffffffffffffffffffffffffff1673ffffffffffffffffffffffffffffffffffffffff1681526020019081526020016000205414610686576040517f08c379a000000000000000000000000000000000000000000000000000000000815260040161067d9061367a565b60405180910390fd5b838383600d60008285856040516020016106a2939291906136f5565b6040516020818303038152906040528051906020012060001c815260200190815260200160002060009054906101000a900460ff1615610717576040517f08c379a000000000000000000000000000000000000000000000000000000000815260040161070e9061347a565b60405180910390fd5b8a60405160200161072891906133b1565b60405160208183030381529060405280519060200120600b60003373ffffffffffffffffffffffffffffffffffffffff1673ffffffffffffffffffffffffffffffffffffffff16815260200190815260200160002054146107be576040517f08c379a00000000000000000000000000000000000000000000000000000000081526004016107b59061359a565b60405180910390fd5b61082a600a60003373ffffffffffffffffffffffffffffffffffffffff1673ffffffffffffffffffffffffffffffffffffffff16815260200190815260200160002060009054906101000a900473ffffffffffffffffffffffffffffffffffffffff1685878a8a61278c565b610869576040517f08c379a00000000000000000000000000000000000000000000000000000000081526004016108609061363a565b60405180910390fd5b6001600d6000878a8a604051602001610884939291906136f5565b6040516020818303038152906040528051906020012060001c815260200190815260200160002060006101000a81548160ff0219169083151502179055506000600760003373ffffffffffffffffffffffffffffffffffffffff1673ffffffffffffffffffffffffffffffffffffffff16815260200190815260200160002054600860003373ffffffffffffffffffffffffffffffffffffffff1673ffffffffffffffffffffffffffffffffffffffff168152602001908152602001600020548660400151030290506001600660003373ffffffffffffffffffffffffffffffffffffffff1673ffffffffffffffffffffffffffffffffffffffff1681526020019081526020016000208190555080600560003373ffffffffffffffffffffffffffffffffffffffff1673ffffffffffffffffffffffffffffffffffffffff16815260200190815260200160002060008282540192505081905550898b3373ffffffffffffffffffffffffffffffffffffffff167fa3b5114019308e0cd59136848c5f499c862f654a32881d66df71ce004397713a8c604051610a2791906133b1565b60405180910390a4505050505050505050505050565b6002600160003373ffffffffffffffffffffffffffffffffffffffff1673ffffffffffffffffffffffffffffffffffffffff1681526020019081526020016000205414610abf576040517f08c379a0000000000000000000000000000000000000000000000000000000008152600401610ab6906134da565b60405180910390fd5b838383600d6000828585604051602001610adb939291906136f5565b6040516020818303038152906040528051906020012060001c815260200190815260200160002060009054906101000a900460ff1615610b50576040517f08c379a0000000000000000000000000000000000000000000000000000000008152600401610b479061347a565b60405180910390fd5b600260003373ffffffffffffffffffffffffffffffffffffffff1673ffffffffffffffffffffffffffffffffffffffff16815260200190815260200160002060009054906101000a900473ffffffffffffffffffffffffffffffffffffffff1673ffffffffffffffffffffffffffffffffffffffff16846000015173ffffffffffffffffffffffffffffffffffffffff1614610c21576040517f08c379a0000000000000000000000000000000000000000000000000000000008152600401610c189061365a565b60405180910390fd5b8360200151610c65576040517f08c379a0000000000000000000000000000000000000000000000000000000008152600401610c5c906135ba565b60405180910390fd5b610cd1600260003373ffffffffffffffffffffffffffffffffffffffff1673ffffffffffffffffffffffffffffffffffffffff16815260200190815260200160002060009054906101000a900473ffffffffffffffffffffffffffffffffffffffff1685878a8a61278c565b610d10576040517f08c379a0000000000000000000000000000000000000000000000000000000008152600401610d079061363a565b60405180910390fd5b6001600d6000878a8a604051602001610d2b939291906136f5565b6040516020818303038152906040528051906020012060001c815260200190815260200160002060006101000a81548160ff02191690831515021790555060018060003373ffffffffffffffffffffffffffffffffffffffff1673ffffffffffffffffffffffffffffffffffffffff1681526020019081526020016000208190555050505050505050565b600e54341015610dfb576040517f08c379a0000000000000000000000000000000000000000000000000000000008152600401610df29061355a565b60405180910390fd5b828282600d6000828585604051602001610e17939291906136f5565b6040516020818303038152906040528051906020012060001c815260200190815260200160002060009054906101000a900460ff1615610e8c576040517f08c379a0000000000000000000000000000000000000000000000000000000008152600401610e839061347a565b60405180910390fd5b60018785888860405160008152602001604052604051610eaf94939291906133f5565b6020604051602081039080840390855afa158015610ed1573d6000803e3d6000fd5b5050506020604051035173ffffffffffffffffffffffffffffffffffffffff16601060009054906101000a900473ffffffffffffffffffffffffffffffffffffffff1673ffffffffffffffffffffffffffffffffffffffff1614610f6a576040517f08c379a0000000000000000000000000000000000000000000000000000000008152600401610f619061353a565b60405180910390fd5b6001600d6000868989604051602001610f85939291906136f5565b6040516020818303038152906040528051906020012060001c815260200190815260200160002060006101000a81548160ff02191690831515021790555060018060003373ffffffffffffffffffffffffffffffffffffffff1673ffffffffffffffffffffffffffffffffffffffff16815260200190815260200160002081905550346000803373ffffffffffffffffffffffffffffffffffffffff1673ffffffffffffffffffffffffffffffffffffffff1681526020019081526020016000208190555086600460003373ffffffffffffffffffffffffffffffffffffffff1673ffffffffffffffffffffffffffffffffffffffff168152602001908152602001600020819055503373ffffffffffffffffffffffffffffffffffffffff167faf78db233862fef7bee74669eb39a23bf69faf1a528ea3db7a020cc97c00e18c886040516110d491906133b1565b60405180910390a250505050505050565b60018060003373ffffffffffffffffffffffffffffffffffffffff1673ffffffffffffffffffffffffffffffffffffffff1681526020019081526020016000205414611166576040517f08c379a000000000000000000000000000000000000000000000000000000000815260040161115d906134fa565b60405180910390fd5b838383600d6000828585604051602001611182939291906136f5565b6040516020818303038152906040528051906020012060001c815260200190815260200160002060009054906101000a900460ff16156111f7576040517f08c379a00000000000000000000000000000000000000000000000000000000081526004016111ee9061347a565b60405180910390fd5b600e546000803373ffffffffffffffffffffffffffffffffffffffff1673ffffffffffffffffffffffffffffffffffffffff16815260200190815260200160002054101561127a576040517f08c379a00000000000000000000000000000000000000000000000000000000081526004016112719061343a565b60405180910390fd5b3373ffffffffffffffffffffffffffffffffffffffff16846000015173ffffffffffffffffffffffffffffffffffffffff16146112ec576040517f08c379a00000000000000000000000000000000000000000000000000000000081526004016112e3906135da565b60405180910390fd5b6112f98985878a8a61278c565b611338576040517f08c379a000000000000000000000000000000000000000000000000000000000815260040161132f9061345a565b60405180910390fd5b6001600d6000878a8a604051602001611353939291906136f5565b6040516020818303038152906040528051906020012060001c815260200190815260200160002060006101000a81548160ff02191690831515021790555088600260003373ffffffffffffffffffffffffffffffffffffffff1673ffffffffffffffffffffffffffffffffffffffff16815260200190815260200160002060006101000a81548173ffffffffffffffffffffffffffffffffffffffff021916908373ffffffffffffffffffffffffffffffffffffffff160217905550836040015160001b600360003373ffffffffffffffffffffffffffffffffffffffff1673ffffffffffffffffffffffffffffffffffffffff16815260200190815260200160002081905550600160003373ffffffffffffffffffffffffffffffffffffffff1673ffffffffffffffffffffffffffffffffffffffff1681526020019081526020016000206000815480929190600101919050555087846040015160001b3373ffffffffffffffffffffffffffffffffffffffff167f9acfb04083c0e452eddaa9873582de7256d628796658c79c854b2d4cb989e77960405160405180910390a4505050505050505050565b6002600660003373ffffffffffffffffffffffffffffffffffffffff1673ffffffffffffffffffffffffffffffffffffffff1681526020019081526020016000205414611582576040517f08c379a00000000000000000000000000000000000000000000000000000000081526004016115799061367a565b60405180910390fd5b42600f54600860003373ffffffffffffffffffffffffffffffffffffffff1673ffffffffffffffffffffffffffffffffffffffff168152602001908152602001600020540110611607576040517f08c379a00000000000000000000000000000000000000000000000000000000081526004016115fe9061349a565b60405180910390fd5b8273ffffffffffffffffffffffffffffffffffffffff16600a60003373ffffffffffffffffffffffffffffffffffffffff1673ffffffffffffffffffffffffffffffffffffffff16815260200190815260200160002060009054906101000a900473ffffffffffffffffffffffffffffffffffffffff1673ffffffffffffffffffffffffffffffffffffffff16146116d4576040517f08c379a00000000000000000000000000000000000000000000000000000000081526004016116cb906136ba565b60405180910390fd5b600e54600560003373ffffffffffffffffffffffffffffffffffffffff1673ffffffffffffffffffffffffffffffffffffffff168152602001908152602001600020600082825401925050819055506001600660003373ffffffffffffffffffffffffffffffffffffffff1673ffffffffffffffffffffffffffffffffffffffff16815260200190815260200160002081905550600e546000808573ffffffffffffffffffffffffffffffffffffffff1673ffffffffffffffffffffffffffffffffffffffff1681526020019081526020016000206000828254039250508190555060018060008573ffffffffffffffffffffffffffffffffffffffff1673ffffffffffffffffffffffffffffffffffffffff16815260200190815260200160002081905550813373ffffffffffffffffffffffffffffffffffffffff167f57ec1e231e5081230c21b56ded626385a438d0290d6e321ce5068b93a9667cb48360405161184191906133b1565b60405180910390a3505050565b803373ffffffffffffffffffffffffffffffffffffffff16600960008373ffffffffffffffffffffffffffffffffffffffff1673ffffffffffffffffffffffffffffffffffffffff16815260200190815260200160002060009054906101000a900473ffffffffffffffffffffffffffffffffffffffff1673ffffffffffffffffffffffffffffffffffffffff161461191c576040517f08c379a00000000000000000000000000000000000000000000000000000000081526004016119139061361a565b60405180910390fd5b34600560008473ffffffffffffffffffffffffffffffffffffffff1673ffffffffffffffffffffffffffffffffffffffff16815260200190815260200160002060008282540192505081905550600e54600560008473ffffffffffffffffffffffffffffffffffffffff1673ffffffffffffffffffffffffffffffffffffffff1681526020019081526020016000205411156119f8576001600660008473ffffffffffffffffffffffffffffffffffffffff1673ffffffffffffffffffffffffffffffffffffffff168152602001908152602001600020819055505b5050565b6000801b600460003373ffffffffffffffffffffffffffffffffffffffff1673ffffffffffffffffffffffffffffffffffffffff168152602001908152602001600020541415611a81576040517f08c379a0000000000000000000000000000000000000000000000000000000008152600401611a789061357a565b60405180910390fd5b346000803373ffffffffffffffffffffffffffffffffffffffff1673ffffffffffffffffffffffffffffffffffffffff16815260200190815260200160002060008282540192505081905550600e546000803373ffffffffffffffffffffffffffffffffffffffff1673ffffffffffffffffffffffffffffffffffffffff168152602001908152602001600020541115611b5a5760018060003373ffffffffffffffffffffffffffffffffffffffff1673ffffffffffffffffffffffffffffffffffffffff168152602001908152602001600020819055505b565b600073ffffffffffffffffffffffffffffffffffffffff16600960003373ffffffffffffffffffffffffffffffffffffffff1673ffffffffffffffffffffffffffffffffffffffff16815260200190815260200160002060009054906101000a900473ffffffffffffffffffffffffffffffffffffffff1673ffffffffffffffffffffffffffffffffffffffff161415611c2b576040517f08c379a0000000000000000000000000000000000000000000000000000000008152600401611c22906135fa565b60405180910390fd5b6000600660003373ffffffffffffffffffffffffffffffffffffffff1673ffffffffffffffffffffffffffffffffffffffff1681526020019081526020016000205414611cad576040517f08c379a0000000000000000000000000000000000000000000000000000000008152600401611ca49061351a565b60405180910390fd5b6001600660003373ffffffffffffffffffffffffffffffffffffffff1673ffffffffffffffffffffffffffffffffffffffff16815260200190815260200160002081905550813373ffffffffffffffffffffffffffffffffffffffff167f2424aeb4c43453297d9f4c2792e99fa2d1a3885a9ec287d129a9eb16b2274bae83600760003373ffffffffffffffffffffffffffffffffffffffff1673ffffffffffffffffffffffffffffffffffffffff16815260200190815260200160002054604051611d7a9291906133cc565b60405180910390a35050565b6000600560008373ffffffffffffffffffffffffffffffffffffffff1673ffffffffffffffffffffffffffffffffffffffff168152602001908152602001600020549050919050565b6001600660003373ffffffffffffffffffffffffffffffffffffffff1673ffffffffffffffffffffffffffffffffffffffff1681526020019081526020016000205414611e51576040517f08c379a0000000000000000000000000000000000000000000000000000000008152600401611e48906134ba565b60405180910390fd5b838383600d6000828585604051602001611e6d939291906136f5565b6040516020818303038152906040528051906020012060001c815260200190815260200160002060009054906101000a900460ff1615611ee2576040517f08c379a0000000000000000000000000000000000000000000000000000000008152600401611ed99061347a565b60405180910390fd5b600e54600560003373ffffffffffffffffffffffffffffffffffffffff1673ffffffffffffffffffffffffffffffffffffffff168152602001908152602001600020541015611f66576040517f08c379a0000000000000000000000000000000000000000000000000000000008152600401611f5d9061343a565b60405180910390fd5b611f738885878a8a61278c565b611fb2576040517f08c379a0000000000000000000000000000000000000000000000000000000008152600401611fa99061345a565b60405180910390fd5b6001600d6000878a8a604051602001611fcd939291906136f5565b6040516020818303038152906040528051906020012060001c815260200190815260200160002060006101000a81548160ff02191690831515021790555087600a60003373ffffffffffffffffffffffffffffffffffffffff1673ffffffffffffffffffffffffffffffffffffffff16815260200190815260200160002060006101000a81548173ffffffffffffffffffffffffffffffffffffffff021916908373ffffffffffffffffffffffffffffffffffffffff160217905550836040015160001b600b60003373ffffffffffffffffffffffffffffffffffffffff1673ffffffffffffffffffffffffffffffffffffffff16815260200190815260200160002081905550600660003373ffffffffffffffffffffffffffffffffffffffff1673ffffffffffffffffffffffffffffffffffffffff1681526020019081526020016000206000815480929190600101919050555042600860003373ffffffffffffffffffffffffffffffffffffffff1673ffffffffffffffffffffffffffffffffffffffff168152602001908152602001600020819055503373ffffffffffffffffffffffffffffffffffffffff167f85cea8e5c736ca5a3905acb561aaf9c0bfa642f01617802a20a7c5e34ea3dc55856040015160001b6040516121b491906133b1565b60405180910390a25050505050505050565b803373ffffffffffffffffffffffffffffffffffffffff16600960008373ffffffffffffffffffffffffffffffffffffffff1673ffffffffffffffffffffffffffffffffffffffff16815260200190815260200160002060009054906101000a900473ffffffffffffffffffffffffffffffffffffffff1673ffffffffffffffffffffffffffffffffffffffff1614612294576040517f08c379a000000000000000000000000000000000000000000000000000000000815260040161228b9061361a565b60405180910390fd5b6001600660008473ffffffffffffffffffffffffffffffffffffffff1673ffffffffffffffffffffffffffffffffffffffff1681526020019081526020016000205414612316576040517f08c379a000000000000000000000000000000000000000000000000000000000815260040161230d9061369a565b60405180910390fd5b6000600660008473ffffffffffffffffffffffffffffffffffffffff1673ffffffffffffffffffffffffffffffffffffffff168152602001908152602001600020819055506000600560003373ffffffffffffffffffffffffffffffffffffffff1673ffffffffffffffffffffffffffffffffffffffff1681526020019081526020016000205490506000600560008573ffffffffffffffffffffffffffffffffffffffff1673ffffffffffffffffffffffffffffffffffffffff168152602001908152602001600020819055503373ffffffffffffffffffffffffffffffffffffffff166108fc829081150290604051600060405180830381858888f1935050505015801561242a573d6000803e3d6000fd5b50505050565b6002600160003373ffffffffffffffffffffffffffffffffffffffff1673ffffffffffffffffffffffffffffffffffffffff16815260200190815260200160002054146124b2576040517f08c379a00000000000000000000000000000000000000000000000000000000081526004016124a9906134da565b60405180910390fd5b838383600d60008285856040516020016124ce939291906136f5565b6040516020818303038152906040528051906020012060001c815260200190815260200160002060009054906101000a900460ff1615612543576040517f08c379a000000000000000000000000000000000000000000000000000000000815260040161253a9061347a565b60405180910390fd5b87604051602001612554919061335f565b60405160208183030381529060405280519060200120600360003373ffffffffffffffffffffffffffffffffffffffff1673ffffffffffffffffffffffffffffffffffffffff16815260200190815260200160002054146125ea576040517f08c379a00000000000000000000000000000000000000000000000000000000081526004016125e19061359a565b60405180910390fd5b612656600260003373ffffffffffffffffffffffffffffffffffffffff1673ffffffffffffffffffffffffffffffffffffffff16815260200190815260200160002060009054906101000a900473ffffffffffffffffffffffffffffffffffffffff1685878a8a61278c565b612695576040517f08c379a000000000000000000000000000000000000000000000000000000000815260040161268c9061363a565b60405180910390fd5b6001600d6000878a8a6040516020016126b0939291906136f5565b6040516020818303038152906040528051906020012060001c815260200190815260200160002060006101000a81548160ff02191690831515021790555083604001516000803373ffffffffffffffffffffffffffffffffffffffff1673ffffffffffffffffffffffffffffffffffffffff1681526020019081526020016000206000828254039250508190555060018060003373ffffffffffffffffffffffffffffffffffffffff1673ffffffffffffffffffffffffffffffffffffffff168152602001908152602001600020819055505050505050505050565b60008061279886612829565b90506000600182878787604051600081526020016040526040516127bf94939291906133f5565b6020604051602081039080840390855afa1580156127e1573d6000803e3d6000fd5b5050506020604051035190508773ffffffffffffffffffffffffffffffffffffffff168173ffffffffffffffffffffffffffffffffffffffff16149250505095945050505050565b600081600001518260200151836040015160405160200161284c9392919061337a565b604051602081830303815290604052805190602001209050919050565b600081359050612878816137d3565b92915050565b60008135905061288d816137ea565b92915050565b6000813590506128a281613801565b92915050565b6000606082840312156128ba57600080fd5b6128c4606061372c565b905060006128d484828501612869565b60008301525060206128e88482850161287e565b60208301525060406128fc84828501612908565b60408301525092915050565b60008135905061291781613818565b92915050565b60008135905061292c8161382f565b92915050565b60006020828403121561294457600080fd5b600061295284828501612869565b91505092915050565b60008060006060848603121561297057600080fd5b600061297e86828701612869565b935050602061298f86828701612893565b92505060406129a086828701612893565b9150509250925092565b60008060008060008061010087890312156129c457600080fd5b60006129d289828a01612869565b96505060206129e389828a01612893565b95505060406129f489828a01612893565b9450506060612a0589828a01612893565b9350506080612a1689828a0161291d565b92505060a0612a2789828a016128a8565b9150509295509295509295565b600080600080600060e08688031215612a4c57600080fd5b6000612a5a88828901612869565b9550506020612a6b88828901612893565b9450506040612a7c88828901612893565b9350506060612a8d8882890161291d565b9250506080612a9e888289016128a8565b9150509295509295909350565b600080600060608486031215612ac057600080fd5b6000612ace86828701612869565b9350506020612adf86828701612893565b9250506040612af086828701612908565b9150509250925092565b60008060408385031215612b0d57600080fd5b6000612b1b85828601612893565b9250506020612b2c85828601612893565b9150509250929050565b600080600080600080600080610140898b031215612b5357600080fd5b6000612b618b828c01612893565b9850506020612b728b828c01612893565b9750506040612b838b828c01612893565b9650506060612b948b828c01612893565b9550506080612ba58b828c01612893565b94505060a0612bb68b828c01612893565b93505060c0612bc78b828c0161291d565b92505060e0612bd88b828c016128a8565b9150509295985092959890939650565b60008060008060808587031215612bfe57600080fd5b6000612c0c87828801612893565b9450506020612c1d87828801612893565b9350506040612c2e87828801612893565b9250506060612c3f8782880161291d565b91505092959194509250565b600080600080600060e08688031215612c6357600080fd5b6000612c7188828901612893565b9550506020612c8288828901612893565b9450506040612c9388828901612893565b9350506060612ca48882890161291d565b9250506080612cb5888289016128a8565b9150509295509295909350565b60008060008060c08587031215612cd857600080fd5b6000612ce687828801612893565b9450506020612cf787828801612893565b9350506040612d088782880161291d565b9250506060612d19878288016128a8565b91505092959194509250565b612d2e8161376a565b82525050565b612d3d8161377c565b82525050565b612d4c81613788565b82525050565b612d63612d5e82613788565b6137c9565b82525050565b6000612d76602383613759565b91507f6e6f7420656e6f756768206465706f73697420746f20737461727420626f6f6b60008301527f696e6700000000000000000000000000000000000000000000000000000000006020830152604082019050919050565b6000612ddc601f83613759565b91507f486173686c6f636b207369676e6174757265206973206e6f742076616c6964006000830152602082019050919050565b6000612e1c601783613759565b91507f4b657920696d61676520616c72656164792075736564210000000000000000006000830152602082019050919050565b6000612e5c601e83613759565b91507f546f6f206561726c7920746f20666f72636520656e6420626f6f6b696e6700006000830152602082019050919050565b6000612e9c601283613759565b91507f43617220697320756e617661696c61626c6500000000000000000000000000006000830152602082019050919050565b6000612edc601483613759565b91507f52656e746572206973206e6f7420626f6f6b65640000000000000000000000006000830152602082019050919050565b6000612f1c601583613759565b91507f52656e74657220697320756e617661696c61626c6500000000000000000000006000830152602082019050919050565b6000612f5c601583613759565b91507f436172206e6f74207965742076616c69646174656400000000000000000000006000830152602082019050919050565b6000612f9c601383613759565b91507f4e6f2076616c6964205050435f72656e746572000000000000000000000000006000830152602082019050919050565b6000612fdc602283613759565b91507f4e6f7420656e6f756768206465706f73697420746f20656e746572207379737460008301527f656d0000000000000000000000000000000000000000000000000000000000006020830152604082019050919050565b6000613042601883613759565b91507f56616c696461746520796f757273656c662066697273742100000000000000006000830152602082019050919050565b6000613082602683613759565b91507f4e6f742074686520617070726f7072696174652076616c756520746f206f706560008301527f6e206c6f636b00000000000000000000000000000000000000000000000000006020830152604082019050919050565b60006130e8600e83613759565b91507f4e6f74206120686173686c6f636b0000000000000000000000000000000000006000830152602082019050919050565b6000613128601f83613759565b91507f5369676e6174757265206e6f7420666f722074686973207265636569766572006000830152602082019050919050565b6000613168601483613759565b91507f436172206e6f7420796574206465706c6f7965640000000000000000000000006000830152602082019050919050565b60006131a8601b83613759565b91507f4f6e6c79206f776e65722063616e20766965772062616c616e636500000000006000830152602082019050919050565b60006131e8601b83613759565b91507f466565207369676e6174757265206973206e6f742076616c69642100000000006000830152602082019050919050565b6000613228601a83613759565b91507f4e6f74207468652073616d652063617220617320626f6f6b65640000000000006000830152602082019050919050565b6000613268601183613759565b91507f436172206973206e6f7420626f6f6b65640000000000000000000000000000006000830152602082019050919050565b60006132a8603883613759565b91507f4361722063757272656e746c7920696e207573652c207761697420756e74696c60008301527f2072656e746572206861732072657475726e65642063617200000000000000006020830152604082019050919050565b600061330e601a83613759565b91507f4e6f742074686520617070726f7072696174652072656e7465720000000000006000830152602082019050919050565b61334a816137b2565b82525050565b613359816137bc565b82525050565b600061336b8284612d52565b60208201915081905092915050565b600060608201905061338f6000830186612d25565b61339c6020830185612d34565b6133a96040830184613341565b949350505050565b60006020820190506133c66000830184612d43565b92915050565b60006040820190506133e16000830185612d43565b6133ee6020830184613341565b9392505050565b600060808201905061340a6000830187612d43565b6134176020830186613350565b6134246040830185612d43565b6134316060830184612d43565b95945050505050565b6000602082019050818103600083015261345381612d69565b9050919050565b6000602082019050818103600083015261347381612dcf565b9050919050565b6000602082019050818103600083015261349381612e0f565b9050919050565b600060208201905081810360008301526134b381612e4f565b9050919050565b600060208201905081810360008301526134d381612e8f565b9050919050565b600060208201905081810360008301526134f381612ecf565b9050919050565b6000602082019050818103600083015261351381612f0f565b9050919050565b6000602082019050818103600083015261353381612f4f565b9050919050565b6000602082019050818103600083015261355381612f8f565b9050919050565b6000602082019050818103600083015261357381612fcf565b9050919050565b6000602082019050818103600083015261359381613035565b9050919050565b600060208201905081810360008301526135b381613075565b9050919050565b600060208201905081810360008301526135d3816130db565b9050919050565b600060208201905081810360008301526135f38161311b565b9050919050565b600060208201905081810360008301526136138161315b565b9050919050565b600060208201905081810360008301526136338161319b565b9050919050565b60006020820190508181036000830152613653816131db565b9050919050565b600060208201905081810360008301526136738161321b565b9050919050565b600060208201905081810360008301526136938161325b565b9050919050565b600060208201905081810360008301526136b38161329b565b9050919050565b600060208201905081810360008301526136d381613301565b9050919050565b60006020820190506136ef6000830184613341565b92915050565b600060608201905061370a6000830186613350565b6137176020830185612d43565b6137246040830184612d43565b949350505050565b6000604051905081810181811067ffffffffffffffff8211171561374f57600080fd5b8060405250919050565b600082825260208201905092915050565b600061377582613792565b9050919050565b60008115159050919050565b6000819050919050565b600073ffffffffffffffffffffffffffffffffffffffff82169050919050565b6000819050919050565b600060ff82169050919050565b6000819050919050565b6137dc8161376a565b81146137e757600080fd5b50565b6137f38161377c565b81146137fe57600080fd5b50565b61380a81613788565b811461381557600080fd5b50565b613821816137b2565b811461382c57600080fd5b50565b613838816137bc565b811461384357600080fd5b5056fea2646970667358221220e6f1f16eab162d59db667a4369be2c6c767744442a74e0dcbbb54e4e74e8dba464736f6c63430006040033",
  "source": "pragma solidity ^0.6.4;\npragma experimental ABIEncoderV2;\n/* Author: David De Troch\nThe goal of this contract is to implement a platform that can be used for aggregated car sharing\nproviding an application specific payment hub. This payment hub is able to provide anonimity between\ncar renter and driver if ring signatures and zero-knowledge proofs are implemented.\nRing signatures are required on the RingMessage:\nhttps://cryptonote.org/whitepaper.pdf\nZero-knowledge proofs should hide the renter's balance:\nhttps://files.sri.inf.ethz.ch/website/papers/ccs19-zkay.pdf\n\nThe contract consists of three phases:\nPhase 1: Deploy car, renter and tumbler\nPhase 2: Booking and Payment of car\nPhase 3: Withdraw Balance\n*/\ncontract carSharing{\n\n    //Renter Mappings\n    mapping(address => uint)        renter_balance;\n    mapping(address => uint)        renter_state;\n    mapping(address => address)     renter_links;\n    mapping(address => bytes32)     renter_hashlock;\n    mapping(address => bytes32)     renter_ppc;\n\n    //Car Mappings\n    mapping(address => uint)        car_balance;\n    mapping(address => uint)        car_state; //0 = uninitialized, 1 = initialized, 2 = booked,\n    mapping(address => uint)        car_price;\n    mapping(address => uint)        car_start;\n    mapping(address => address)     car_owner;\n    mapping(address => address)     car_links;\n    mapping(address => bytes32)     car_hashlock;\n    mapping(address => bytes32)     car_token;\n\n    //Ring Message where instance (1 = hashlock, 2 =fee, 3 = timestamp) specifies the content\n    struct RingMessage{\n        address destination;\n        bool    hashlock;\n        uint    content;\n    }\n\n    //Groupings of published signatures\n    mapping(uint256 => bool)        keyImageUsed;\n\n    //Constants\n    uint    DEPOSIT                 = 5 ether;\n    uint    PERIOD                  = 86400;\n    address REGISTRATION_SERVICE    = address(0);\n\n    //Events\n    event E_deployRenter(address indexed, bytes32 ppc);\n    event E_deployCar(address indexed, bytes32 details);\n    event E_carAvailable(address indexed, bytes32 indexed token, bytes32 location, uint price);\n    event E_carBooking(address indexed, bytes32 hashlock);\n    event E_renterBooking(address indexed, bytes32 indexed hashlock, bytes32 indexed secretLink);\n    event E_carPaid(address indexed, bytes32 indexed encryptedPreimage, bytes32 indexed newToken, bytes32 location);\n    event E_renterPaid(address indexed);\n    event E_forcedEnd(address indexed, bytes32 indexed newToken, bytes32 location);\n\n    //Modifiers\n    modifier checkDeposit(){\n        require(msg.value >= DEPOSIT,'Not enough deposit to enter system');\n        _;\n    }\n    modifier carAvailable(){\n        require(car_state[msg.sender] == 1, 'Car is unavailable');\n        _;\n    }\n    modifier renterAvailable(){\n        require(renter_state[msg.sender] == 1, 'Renter is unavailable');\n        _;\n    }\n    modifier carBooked(){\n        require(car_state[msg.sender] == 2,'Car is not booked');\n        _;\n    }\n    modifier renterBooked(){\n        require(renter_state[msg.sender] == 2,'Renter is not booked');\n        _;\n    }\n    modifier onlyCarOwner(address _car){\n        require(car_owner[_car]==msg.sender, 'Only owner can view balance');\n        _;\n    }\n\n    modifier unusedKeyImage(bytes32 _r, bytes32 _s, uint8 _v){\n        require(!keyImageUsed[uint(keccak256(abi.encode(_v,_r,_s)))],\"Key image already used!\");\n        _;\n    }\n    //Phase 1: renter and car are deployed as entities on the blockchain\n    function deployRenter(bytes32 _ppc, bytes32 _r, bytes32 _s, uint8 _v) public payable checkDeposit() unusedKeyImage(_r, _s, _v)\n    {\n        require(REGISTRATION_SERVICE == ecrecover(_ppc, _v, _r, _s), \"No valid PPC_renter\");\n        keyImageUsed[uint(keccak256(abi.encode(_v,_r,_s)))] = true;\n\n        renter_state[msg.sender] = 1;\n        renter_balance[msg.sender] = msg.value;\n        renter_ppc[msg.sender] = _ppc;\n        emit E_deployRenter(msg.sender, _ppc);\n    }\n\n    function deployCar(address _address, bytes32 _details, uint _price) public payable checkDeposit()\n    {\n        car_balance[_address] = msg.value;\n        car_owner[_address] = msg.sender;\n        car_price[_address] = _price;\n        emit E_deployCar(_address, _details);\n    }\n    \n    function validateCar(bytes32 _token, bytes32 _location) public\n    {\n        require(car_owner[msg.sender] != address(0),'Car not yet deployed');\n        require(car_state[msg.sender] == 0, 'Car not yet validated');\n        car_state[msg.sender] = 1;\n        emit E_carAvailable(msg.sender, _token, _location, car_price[msg.sender]);\n    }\n\n    //Phase 2: A booking is initiated\n    function renterBooking(\n        address     _car,\n        bytes32     _secretLink,\n        bytes32     _r,\n        bytes32     _s,\n        uint8       _v,\n        RingMessage memory _message)\n        public renterAvailable() unusedKeyImage(_r, _s, _v)\n    {\n        require(renter_balance[msg.sender] >= DEPOSIT, 'not enough deposit to start booking');\n        require(_message.destination == msg.sender, 'Signature not for this receiver');\n        require(isSignatureValid(_car, _message, _v, _r, _s),\"Hashlock signature is not valid\");\n        keyImageUsed[uint(keccak256(abi.encode(_v,_r,_s)))] = true;\n        \n        renter_links[msg.sender] = _car;\n        renter_hashlock[msg.sender] = bytes32(_message.content);\n        renter_state[msg.sender]++;\n\n        emit E_renterBooking(msg.sender, bytes32(_message.content), _secretLink);\n    }\n\n    function carBooking(\n        address _renter,\n        bytes32 _r,\n        bytes32 _s,\n        uint8   _v,\n        RingMessage memory _message)\n        public carAvailable() unusedKeyImage(_r, _s, _v)\n    {\n        require(car_balance[msg.sender] >= DEPOSIT, 'not enough deposit to start booking');\n        require(isSignatureValid(_renter, _message, _v, _r, _s),'Hashlock signature is not valid');\n        keyImageUsed[uint(keccak256(abi.encode(_v,_r,_s)))] = true;\n        \n        car_links[msg.sender] = _renter;\n        car_hashlock[msg.sender] = bytes32(_message.content);\n        car_state[msg.sender]++;\n        car_start[msg.sender] = now;\n\n        emit E_carBooking(msg.sender, bytes32(_message.content));\n    }\n\n    //Phase 3: Payment & reset state\n    function carPayment(\n        bytes32 _preimage,\n        bytes32 _encryptedPreimage,\n        bytes32 _newToken,\n        bytes32 _location,\n        bytes32 _r,\n        bytes32 _s,\n        uint8   _v,\n        RingMessage memory _msg)\n        public carBooked() unusedKeyImage(_r,_s,_v){\n        require(car_hashlock[msg.sender] == keccak256(abi.encode(_preimage)), 'Not the appropriate value to open lock');\n        require(isSignatureValid(car_links[msg.sender], _msg , _v, _r, _s),'Fee signature is not valid!');\n        keyImageUsed[uint(keccak256(abi.encode(_v,_r,_s)))] = true;\n\n        uint fee = (_msg.content - car_start[msg.sender])*car_price[msg.sender];\n        car_state[msg.sender] = 1;\n        car_balance[msg.sender] += fee;\n\n        emit E_carPaid(msg.sender, _encryptedPreimage, _newToken, _location);\n    }\n\n    function renterPayment(\n        bytes32 _preimage,\n        bytes32 _r,\n        bytes32 _s,\n        uint8   _v,\n        RingMessage memory _msg)\n        public renterBooked() unusedKeyImage(_r, _s, _v)\n    {\n        require(renter_hashlock[msg.sender] == keccak256(abi.encodePacked(_preimage)), 'Not the appropriate value to open lock');\n        require(isSignatureValid(renter_links[msg.sender], _msg, _v, _r, _s),'Fee signature is not valid!');\n        keyImageUsed[uint(keccak256(abi.encode(_v,_r,_s)))] = true;\n\n        renter_balance[msg.sender] -= _msg.content;\n        renter_state[msg.sender] = 1;\n    }\n\n    //Dispute functions: Double booking and not ending booking\n    //Double booking resolves privacy\n    //1) Car already booked, renter was too late to initiate driving\n    function cancelBooking(\n        bytes32 _r,\n        bytes32 _s,\n        uint8   _v,\n        RingMessage memory _msg)\n        public renterBooked() unusedKeyImage(_r, _s, _v){\n        require(_msg.destination == renter_links[msg.sender],'Not the same car as booked');\n        require(_msg.hashlock, 'Not a hashlock');\n        require(isSignatureValid(renter_links[msg.sender], _msg, _v, _r, _s),'Fee signature is not valid!');\n\n        keyImageUsed[uint(keccak256(abi.encode(_v,_r,_s)))] = true;\n        renter_state[msg.sender] = 1;\n    }\n\n    //2) If renter does not end after period is done --> car can force ending\n    function forceEnd(address _renter, bytes32 _newToken, bytes32 _location) public carBooked() {\n        require(car_start[msg.sender]+PERIOD < now, \"Too early to force end booking\");\n        require(car_links[msg.sender] == _renter, \"Not the appropriate renter\");\n\n        car_balance[msg.sender] += DEPOSIT;\n        car_state[msg.sender] = 1;\n\n        renter_balance[_renter] -= DEPOSIT;\n        renter_state[_renter] = 1;\n\n        emit E_forcedEnd(msg.sender, _newToken, _location);\n    }\n\n    //Check whether correct address has signed off a certain hashed value\n    function isSignatureValid(address _address, RingMessage memory _msg, uint8 _v, bytes32 _r, bytes32 _s) private pure returns(bool) {\n        bytes32 _hash = hashMessage(_msg);\n        address _signer = ecrecover(_hash, _v, _r, _s);\n        return(_signer == _address);\n    }\n\n    //Check whether correct address has signed off a certain hashed value\n    function hashMessage(RingMessage memory _message) private pure returns(bytes32) {\n        return keccak256(abi.encode(_message.destination, _message.hashlock, _message.content));\n    }\n\n    //Check balance of owner\n    function getBalanceOwner(address _car) public view returns(uint) {\n        return car_balance[_car];\n    }\n    //Check balance of renter\n    function getBalanceRenter() public view returns(uint) {\n        return renter_balance[msg.sender];\n    }\n    //Withdraw Balance, check this can't happen while driving!!\n    function withdrawBalanceOwner(address _car)  public onlyCarOwner(_car){\n        require(car_state[_car]==1, 'Car currently in use, wait until renter has returned car');\n        car_state[_car] = 0;\n        uint _value = car_balance[msg.sender];\n        car_balance[_car] = 0;\n        msg.sender.transfer(_value);\n    }\n\n    //Withdraw Balance, check  if this can't happen while driving!!\n    function withdrawBalanceRenter() public{\n        require(renter_state[msg.sender] == 1, 'Car currently in use, wait until renter has returned car');\n        uint _value = renter_balance[msg.sender];\n        msg.sender.transfer(_value);\n    }\n\n    //Fund balance owner\n    function fundBalanceCar(address _car) public payable onlyCarOwner(_car) {\n        car_balance[_car] += msg.value;\n        if (car_balance[_car] > DEPOSIT){\n            car_state[_car] = 1;\n        }\n    }\n\n    //Fund balance renter --> should be adapted to zkay\n    function fundBalanceRenter() public payable{\n        require(renter_ppc[msg.sender] != bytes32(0), 'Validate yourself first!');\n        renter_balance[msg.sender] += msg.value;\n        if (renter_balance[msg.sender] > DEPOSIT){\n            renter_state[msg.sender] = 1;\n        }\n    }\n}\n\n\n",
  "sourcePath": "/home/ddt/Thesis_global/CarSharing/Thesis/contracts/massCarSharing.sol",
  "compiler": {
    "name": "solc",
    "version": "0.6.4+commit.1dca32f3.Emscripten.clang"
  },
  "schemaVersion": "3.1.0",
  "updatedAt": "2020-06-01T13:18:34.189Z",
  "networkType": "ethereum",
  "devdoc": {
    "methods": {}
  },
  "userdoc": {
    "methods": {}
  }
}