{
  "contractName": "carSharing",
  "abi": [
    {
      "anonymous": false,
      "inputs": [
        {
          "indexed": true,
          "internalType": "address",
          "name": "_address",
          "type": "address"
        },
        {
          "indexed": true,
          "internalType": "bytes32",
          "name": "_token",
          "type": "bytes32"
        },
        {
          "indexed": false,
          "internalType": "bytes32",
          "name": "_location",
          "type": "bytes32"
        },
        {
          "indexed": false,
          "internalType": "uint256",
          "name": "_price",
          "type": "uint256"
        }
      ],
      "name": "E_carAvailable",
      "type": "event"
    },
    {
      "anonymous": false,
      "inputs": [
        {
          "indexed": true,
          "internalType": "address",
          "name": "",
          "type": "address"
        },
        {
          "indexed": false,
          "internalType": "bytes32",
          "name": "_hashLock",
          "type": "bytes32"
        }
      ],
      "name": "E_carBooking",
      "type": "event"
    },
    {
      "anonymous": false,
      "inputs": [
        {
          "indexed": true,
          "internalType": "address",
          "name": "",
          "type": "address"
        },
        {
          "indexed": false,
          "internalType": "bytes32",
          "name": "_newLock",
          "type": "bytes32"
        },
        {
          "indexed": false,
          "internalType": "uint256",
          "name": "_fee",
          "type": "uint256"
        }
      ],
      "name": "E_carEnd",
      "type": "event"
    },
    {
      "anonymous": false,
      "inputs": [
        {
          "indexed": true,
          "internalType": "address",
          "name": "",
          "type": "address"
        }
      ],
      "name": "E_carPaid",
      "type": "event"
    },
    {
      "anonymous": false,
      "inputs": [
        {
          "indexed": true,
          "internalType": "address",
          "name": "_address",
          "type": "address"
        },
        {
          "indexed": false,
          "internalType": "bytes32",
          "name": "_details",
          "type": "bytes32"
        }
      ],
      "name": "E_deployCar",
      "type": "event"
    },
    {
      "anonymous": false,
      "inputs": [
        {
          "indexed": true,
          "internalType": "address",
          "name": "_address",
          "type": "address"
        },
        {
          "indexed": false,
          "internalType": "bytes32",
          "name": "_ppc",
          "type": "bytes32"
        }
      ],
      "name": "E_deployRenter",
      "type": "event"
    },
    {
      "anonymous": false,
      "inputs": [
        {
          "indexed": true,
          "internalType": "address",
          "name": "",
          "type": "address"
        },
        {
          "indexed": false,
          "internalType": "bytes32",
          "name": "_hashLock",
          "type": "bytes32"
        },
        {
          "indexed": false,
          "internalType": "bytes32",
          "name": "_secretLink",
          "type": "bytes32"
        }
      ],
      "name": "E_renterBooking",
      "type": "event"
    },
    {
      "anonymous": false,
      "inputs": [
        {
          "indexed": true,
          "internalType": "address",
          "name": "",
          "type": "address"
        },
        {
          "indexed": false,
          "internalType": "bytes32",
          "name": "_newLock",
          "type": "bytes32"
        },
        {
          "indexed": false,
          "internalType": "bytes32",
          "name": "_Fee",
          "type": "bytes32"
        }
      ],
      "name": "E_renterEnd",
      "type": "event"
    },
    {
      "anonymous": false,
      "inputs": [
        {
          "indexed": true,
          "internalType": "address",
          "name": "",
          "type": "address"
        }
      ],
      "name": "E_renterPaid",
      "type": "event"
    },
    {
      "inputs": [
        {
          "internalType": "uint256[2]",
          "name": "Pin",
          "type": "uint256[2]"
        }
      ],
      "name": "CompressPoint",
      "outputs": [
        {
          "internalType": "uint256",
          "name": "Pout",
          "type": "uint256"
        }
      ],
      "stateMutability": "nonpayable",
      "type": "function"
    },
    {
      "inputs": [],
      "name": "ECSignMask",
      "outputs": [
        {
          "internalType": "uint256",
          "name": "",
          "type": "uint256"
        }
      ],
      "stateMutability": "view",
      "type": "function"
    },
    {
      "inputs": [
        {
          "internalType": "uint256",
          "name": "x",
          "type": "uint256"
        }
      ],
      "name": "EvaluateCurve",
      "outputs": [
        {
          "internalType": "uint256",
          "name": "y",
          "type": "uint256"
        },
        {
          "internalType": "bool",
          "name": "onCurve",
          "type": "bool"
        }
      ],
      "stateMutability": "nonpayable",
      "type": "function"
    },
    {
      "inputs": [
        {
          "internalType": "uint256",
          "name": "",
          "type": "uint256"
        }
      ],
      "name": "G1",
      "outputs": [
        {
          "internalType": "uint256",
          "name": "",
          "type": "uint256"
        }
      ],
      "stateMutability": "view",
      "type": "function"
    },
    {
      "inputs": [],
      "name": "N",
      "outputs": [
        {
          "internalType": "uint256",
          "name": "",
          "type": "uint256"
        }
      ],
      "stateMutability": "view",
      "type": "function"
    },
    {
      "inputs": [],
      "name": "P",
      "outputs": [
        {
          "internalType": "uint256",
          "name": "",
          "type": "uint256"
        }
      ],
      "stateMutability": "view",
      "type": "function"
    },
    {
      "inputs": [
        {
          "internalType": "string",
          "name": "message",
          "type": "string"
        },
        {
          "internalType": "uint256[]",
          "name": "data",
          "type": "uint256[]"
        }
      ],
      "name": "RingSign",
      "outputs": [
        {
          "internalType": "uint256[32]",
          "name": "signature",
          "type": "uint256[32]"
        }
      ],
      "stateMutability": "nonpayable",
      "type": "function"
    },
    {
      "inputs": [
        {
          "internalType": "string",
          "name": "message",
          "type": "string"
        },
        {
          "internalType": "uint256[]",
          "name": "signature",
          "type": "uint256[]"
        }
      ],
      "name": "RingVerify",
      "outputs": [
        {
          "internalType": "bool",
          "name": "success",
          "type": "bool"
        }
      ],
      "stateMutability": "nonpayable",
      "type": "function"
    },
    {
      "inputs": [],
      "name": "a",
      "outputs": [
        {
          "internalType": "uint256",
          "name": "",
          "type": "uint256"
        }
      ],
      "stateMutability": "view",
      "type": "function"
    },
    {
      "inputs": [
        {
          "internalType": "uint256",
          "name": "",
          "type": "uint256"
        }
      ],
      "name": "keyImageUsed",
      "outputs": [
        {
          "internalType": "bool",
          "name": "",
          "type": "bool"
        }
      ],
      "stateMutability": "view",
      "type": "function"
    },
    {
      "inputs": [
        {
          "internalType": "uint256",
          "name": "",
          "type": "uint256"
        },
        {
          "internalType": "uint256",
          "name": "",
          "type": "uint256"
        }
      ],
      "name": "lookup_pubkey_by_balance",
      "outputs": [
        {
          "internalType": "uint256",
          "name": "",
          "type": "uint256"
        }
      ],
      "stateMutability": "view",
      "type": "function"
    },
    {
      "inputs": [
        {
          "internalType": "uint256",
          "name": "",
          "type": "uint256"
        }
      ],
      "name": "lookup_pubkey_by_balance_count",
      "outputs": [
        {
          "internalType": "uint256",
          "name": "",
          "type": "uint256"
        }
      ],
      "stateMutability": "view",
      "type": "function"
    },
    {
      "inputs": [
        {
          "internalType": "uint256",
          "name": "",
          "type": "uint256"
        }
      ],
      "name": "lookup_pubkey_by_balance_populated",
      "outputs": [
        {
          "internalType": "bool",
          "name": "",
          "type": "bool"
        }
      ],
      "stateMutability": "view",
      "type": "function"
    },
    {
      "inputs": [
        {
          "internalType": "bytes32",
          "name": "_ppc",
          "type": "bytes32"
        },
        {
          "internalType": "uint8",
          "name": "_v",
          "type": "uint8"
        },
        {
          "internalType": "bytes32",
          "name": "_r",
          "type": "bytes32"
        },
        {
          "internalType": "bytes32",
          "name": "_s",
          "type": "bytes32"
        }
      ],
      "name": "deployRenter",
      "outputs": [],
      "stateMutability": "payable",
      "type": "function"
    },
    {
      "inputs": [
        {
          "internalType": "address",
          "name": "_address",
          "type": "address"
        },
        {
          "internalType": "bytes32",
          "name": "_details",
          "type": "bytes32"
        },
        {
          "internalType": "uint256",
          "name": "_price",
          "type": "uint256"
        }
      ],
      "name": "deployCar",
      "outputs": [],
      "stateMutability": "payable",
      "type": "function"
    },
    {
      "inputs": [
        {
          "internalType": "bytes32",
          "name": "_token",
          "type": "bytes32"
        },
        {
          "internalType": "bytes32",
          "name": "_location",
          "type": "bytes32"
        }
      ],
      "name": "validateCar",
      "outputs": [],
      "stateMutability": "nonpayable",
      "type": "function"
    },
    {
      "inputs": [
        {
          "internalType": "bytes32",
          "name": "_hashLock",
          "type": "bytes32"
        },
        {
          "internalType": "bytes32",
          "name": "_secretLink",
          "type": "bytes32"
        }
      ],
      "name": "renterBooking",
      "outputs": [],
      "stateMutability": "nonpayable",
      "type": "function"
    },
    {
      "inputs": [
        {
          "internalType": "bytes32",
          "name": "_hashLock",
          "type": "bytes32"
        }
      ],
      "name": "carBooking",
      "outputs": [],
      "stateMutability": "nonpayable",
      "type": "function"
    },
    {
      "inputs": [
        {
          "internalType": "bytes32",
          "name": "_preimage",
          "type": "bytes32"
        },
        {
          "internalType": "uint256",
          "name": "_fee",
          "type": "uint256"
        },
        {
          "internalType": "uint256",
          "name": "_random",
          "type": "uint256"
        }
      ],
      "name": "renterPayment",
      "outputs": [],
      "stateMutability": "nonpayable",
      "type": "function"
    },
    {
      "inputs": [
        {
          "internalType": "bytes32",
          "name": "_preimage",
          "type": "bytes32"
        },
        {
          "internalType": "uint256",
          "name": "_fee",
          "type": "uint256"
        },
        {
          "internalType": "uint256",
          "name": "_random",
          "type": "uint256"
        },
        {
          "internalType": "bytes32",
          "name": "_newToken",
          "type": "bytes32"
        }
      ],
      "name": "carPayment",
      "outputs": [],
      "stateMutability": "nonpayable",
      "type": "function"
    }
  ],
  "bytecode": "0x60806040526040518060400160405280600160ff168152602001600260ff168152506000906002620000339291906200009d565b50674563918244f40000601855620151806019556000601a60006101000a81548173ffffffffffffffffffffffffffffffffffffffff021916908373ffffffffffffffffffffffffffffffffffffffff1602179055503480156200009657600080fd5b506200010f565b8260028101928215620000d4579160200282015b82811115620000d3578251829060ff16905591602001919060010190620000b1565b5b509050620000e39190620000e7565b5090565b6200010c91905b8082111562000108576000816000905550600101620000ee565b5090565b90565b612b76806200011f6000396000f3fe60806040526004361061011f5760003560e01c80635c1a1373116100a05780638c580e94116100645780638c580e941461082f5780639216084d14610882578063c9e525df146108d1578063e4bf28c1146108fc578063fc103f1e146109275761011f565b80635c1a1373146106a457806366230bd9146106df57806368440c201461073957806371b1c1611461077e5780638b8fbd92146108045761011f565b80633236fe37116100e75780633236fe37146103c7578063329559121461041657806333f0e9b914610465578063418ee056146105fc57806351e50bfb146106555761011f565b80630d6184d0146101245780630dbe671f1461017c57806320b943d7146101a75780632428766e1461031b578063310d62561461036e575b600080fd5b61017a6004803603606081101561013a57600080fd5b81019080803573ffffffffffffffffffffffffffffffffffffffff169060200190929190803590602001909291908035906020019092919050505061096c565b005b34801561018857600080fd5b50610191610b20565b6040518082815260200191505060405180910390f35b3480156101b357600080fd5b50610301600480360360408110156101ca57600080fd5b81019080803590602001906401000000008111156101e757600080fd5b8201836020820111156101f957600080fd5b8035906020019184600183028401116401000000008311171561021b57600080fd5b91908080601f016020809104026020016040519081016040528093929190818152602001838380828437600081840152601f19601f8201169050808301925050505050505091929192908035906020019064010000000081111561027e57600080fd5b82018360208201111561029057600080fd5b803590602001918460208302840111640100000000831117156102b257600080fd5b919080806020026020016040519081016040528093929190818152602001838360200280828437600081840152601f19601f820116905080830192505050505050509192919290505050610b44565b604051808215151515815260200191505060405180910390f35b34801561032757600080fd5b506103546004803603602081101561033e57600080fd5b8101908080359060200190929190505050610dc6565b604051808215151515815260200191505060405180910390f35b34801561037a57600080fd5b506103c56004803603608081101561039157600080fd5b8101908080359060200190929190803590602001909291908035906020019092919080359060200190929190505050610de6565b005b610414600480360360808110156103dd57600080fd5b8101908080359060200190929190803560ff16906020019092919080359060200190929190803590602001909291905050506110ac565b005b34801561042257600080fd5b506104636004803603606081101561043957600080fd5b81019080803590602001909291908035906020019092919080359060200190929190505050611284565b005b34801561047157600080fd5b506105bf6004803603604081101561048857600080fd5b81019080803590602001906401000000008111156104a557600080fd5b8201836020820111156104b757600080fd5b803590602001918460018302840111640100000000831117156104d957600080fd5b91908080601f016020809104026020016040519081016040528093929190818152602001838380828437600081840152601f19601f8201169050808301925050505050505091929192908035906020019064010000000081111561053c57600080fd5b82018360208201111561054e57600080fd5b8035906020019184602083028401116401000000008311171561057057600080fd5b919080806020026020016040519081016040528093929190818152602001838360200280828437600081840152601f19601f820116905080830192505050505050509192919290505050611506565b60405180826020800280838360005b838110156105e95780820151818401526020810190506105ce565b5050505090500191505060405180910390f35b34801561060857600080fd5b5061063f6004803603604081101561061f57600080fd5b8101908080359060200190929190803590602001909291905050506118ed565b6040518082815260200191505060405180910390f35b34801561066157600080fd5b5061068e6004803603602081101561067857600080fd5b810190808035906020019092919050505061191b565b6040518082815260200191505060405180910390f35b3480156106b057600080fd5b506106dd600480360360208110156106c757600080fd5b8101908080359060200190929190505050611933565b005b3480156106eb57600080fd5b506107186004803603602081101561070257600080fd5b8101908080359060200190929190505050611baa565b60405180838152602001821515151581526020019250505060405180910390f35b34801561074557600080fd5b5061077c6004803603604081101561075c57600080fd5b810190808035906020019092919080359060200190929190505050611d08565b005b34801561078a57600080fd5b506107ee600480360360408110156107a157600080fd5b8101908080604001906002806020026040519081016040528092919082600260200280828437600081840152601f19601f8201169050808301925050505050509192919290505050611f9e565b6040518082815260200191505060405180910390f35b34801561081057600080fd5b50610819611ffb565b6040518082815260200191505060405180910390f35b34801561083b57600080fd5b506108686004803603602081101561085257600080fd5b810190808035906020019092919050505061201f565b604051808215151515815260200191505060405180910390f35b34801561088e57600080fd5b506108bb600480360360208110156108a557600080fd5b810190808035906020019092919050505061203f565b6040518082815260200191505060405180910390f35b3480156108dd57600080fd5b506108e6612057565b6040518082815260200191505060405180910390f35b34801561090857600080fd5b5061091161207b565b6040518082815260200191505060405180910390f35b34801561093357600080fd5b5061096a6004803603604081101561094a57600080fd5b81019080803590602001909291908035906020019092919050505061209f565b005b6018543410156109c7576040517f08c379a0000000000000000000000000000000000000000000000000000000008152600401808060200182810382526022815260200180612af96022913960400191505060405180910390fd5b34600e60008573ffffffffffffffffffffffffffffffffffffffff1673ffffffffffffffffffffffffffffffffffffffff1681526020019081526020016000208190555033600d60008573ffffffffffffffffffffffffffffffffffffffff1673ffffffffffffffffffffffffffffffffffffffff16815260200190815260200160002060006101000a81548173ffffffffffffffffffffffffffffffffffffffff021916908373ffffffffffffffffffffffffffffffffffffffff16021790555080600f60008573ffffffffffffffffffffffffffffffffffffffff1673ffffffffffffffffffffffffffffffffffffffff168152602001908152602001600020819055508273ffffffffffffffffffffffffffffffffffffffff167f37a36774bff66c0945c883c781695c83a64acd1e8915e2787a57ab16c17e3578836040518082815260200191505060405180910390a2505050565b7f0c19139cb84c680a6e14116da060561765e05aa45a1c72a34f082305b61f3f5281565b6000600682511015610bbe576040517f08c379a00000000000000000000000000000000000000000000000000000000081526004018080602001828103825260178152602001807f4d6f7265206d69782d696e206b657973206e656564656400000000000000000081525060200191505060405180910390fd5b60006002835181610bcb57fe5b0614610c3f576040517f08c379a00000000000000000000000000000000000000000000000000000000081526004018080602001828103825260108152602001807f44617461206c656e677468206576656e0000000000000000000000000000000081525060200191505060405180910390fd5b610c47612a90565b610c4f612a90565b600084600181518110610c5e57fe5b602002602001015190506002600086600081518110610c7957fe5b6020026020010151815260200190815260200160002060009054906101000a900460ff1615610d10576040517f08c379a00000000000000000000000000000000000000000000000000000000081526004018080602001828103825260168152602001807f4b657920696d61676520616c726561647920757365640000000000000000000081525060200191505060405180910390fd5b610d2d85600081518110610d2057fe5b602002602001015161231f565b91506000809050600060028088510381610d4357fe5b0490505b80821015610da257610d708783836002010181518110610d6357fe5b602002602001015161231f565b9450610d958884898560020181518110610d8657fe5b602002602001015188886124ba565b9250600182019150610d47565b86600181518110610daf57fe5b602002602001015183149550505050505092915050565b60046020528060005260406000206000915054906101000a900460ff1681565b6001601260003373ffffffffffffffffffffffffffffffffffffffff1673ffffffffffffffffffffffffffffffffffffffff1681526020019081526020016000205414610e3257600080fd5b8282604051602001808381526020018281526020019250505060405160208183030381529060405280519060200120601460003373ffffffffffffffffffffffffffffffffffffffff1673ffffffffffffffffffffffffffffffffffffffff1681526020019081526020016000205414610f14576040517f08c379a00000000000000000000000000000000000000000000000000000000081526004018080602001828103825260158152602001807f6e6f74207468652076616c696420626c696e646572000000000000000000000081525060200191505060405180910390fd5b836040516020018082815260200191505060405160208183030381529060405280519060200120601060003373ffffffffffffffffffffffffffffffffffffffff1673ffffffffffffffffffffffffffffffffffffffff1681526020019081526020016000205414610fd1576040517f08c379a0000000000000000000000000000000000000000000000000000000008152600401808060200182810382526026815260200180612b1b6026913960400191505060405180910390fd5b6000601260003373ffffffffffffffffffffffffffffffffffffffff1673ffffffffffffffffffffffffffffffffffffffff1681526020019081526020016000208190555082600e60003373ffffffffffffffffffffffffffffffffffffffff1673ffffffffffffffffffffffffffffffffffffffff168152602001908152602001600020600082825401925050819055503373ffffffffffffffffffffffffffffffffffffffff167ff0ccfa12ec29b5e7b27e126b582f3c2135f8e08f98dbbd6919e6e12065b17f5c60405160405180910390a250505050565b601854341015611107576040517f08c379a0000000000000000000000000000000000000000000000000000000008152600401808060200182810382526022815260200180612af96022913960400191505060405180910390fd5b611136601a60009054906101000a900473ffffffffffffffffffffffffffffffffffffffff16858585856125cd565b6111a8576040517f08c379a00000000000000000000000000000000000000000000000000000000081526004018080602001828103825260138152602001807f4e6f2076616c6964205050435f72656e7465720000000000000000000000000081525060200191505060405180910390fd5b34600660003373ffffffffffffffffffffffffffffffffffffffff1673ffffffffffffffffffffffffffffffffffffffff1681526020019081526020016000208190555083600b60003373ffffffffffffffffffffffffffffffffffffffff1673ffffffffffffffffffffffffffffffffffffffff168152602001908152602001600020819055503373ffffffffffffffffffffffffffffffffffffffff167faf78db233862fef7bee74669eb39a23bf69faf1a528ea3db7a020cc97c00e18c856040518082815260200191505060405180910390a250505050565b6001600760003373ffffffffffffffffffffffffffffffffffffffff1673ffffffffffffffffffffffffffffffffffffffff16815260200190815260200160002054146112d057600080fd5b8181604051602001808381526020018281526020019250505060405160208183030381529060405280519060200120600a60003373ffffffffffffffffffffffffffffffffffffffff1673ffffffffffffffffffffffffffffffffffffffff16815260200190815260200160002054146113b2576040517f08c379a00000000000000000000000000000000000000000000000000000000081526004018080602001828103825260158152602001807f6e6f74207468652076616c696420626c696e646572000000000000000000000081525060200191505060405180910390fd5b826040516020018082815260200191505060405160208183030381529060405280519060200120600960003373ffffffffffffffffffffffffffffffffffffffff1673ffffffffffffffffffffffffffffffffffffffff168152602001908152602001600020541461146f576040517f08c379a0000000000000000000000000000000000000000000000000000000008152600401808060200182810382526026815260200180612b1b6026913960400191505060405180910390fd5b6000600760003373ffffffffffffffffffffffffffffffffffffffff1673ffffffffffffffffffffffffffffffffffffffff1681526020019081526020016000208190555081600660003373ffffffffffffffffffffffffffffffffffffffff1673ffffffffffffffffffffffffffffffffffffffff16815260200190815260200160002060008282540392505081905550505050565b61150e612ab2565b600682511015611586576040517f08c379a000000000000000000000000000000000000000000000000000000000815260040180806020018281038252601a8152602001807f4e6f7420656e6f756768207369676e61747572652076616c756500000000000081525060200191505060405180910390fd5b6020825111156115fe576040517f08c379a000000000000000000000000000000000000000000000000000000000815260040180806020018281038252600d8152602001807f546f6f206d75636820646174610000000000000000000000000000000000000081525060200191505060405180910390fd5b6000600283518161160b57fe5b061461167f576040517f08c379a00000000000000000000000000000000000000000000000000000000081526004018080602001828103825260128152602001807f556e6576656e2064617461206c656e677468000000000000000000000000000081525060200191505060405180910390fd5b60006002808451038161168e57fe5b0490506000600290505b83518110156116d7578381815181106116ad57fe5b60200260200101518382602081106116c157fe5b6020020181815250508080600101915050611698565b6116df612a90565b6116e7612a90565b6000846001886000815181106116f957fe5b6020026020010151018161170957fe5b069350611741878860008151811061171d57fe5b602002602001015187600201018151811061173457fe5b602002602001015161231f565b92506117618760018151811061175357fe5b602002602001015184612674565b915061176c82611f9e565b8660006020811061177957fe5b6020020181815250506117b788888960008151811061179457fe5b6020026020010151600201815181106117a957fe5b602002602001015185612699565b905060008414156117da5780866001602081106117d057fe5b6020020181815250505b5b866000815181106117e857fe5b6020026020010151841461186d57611817878587600201018151811061180a57fe5b602002602001015161231f565b925061183c888289876002018151811061182d57fe5b602002602001015186866124ba565b9050600184019350848414156118685760009350808660016020811061185e57fe5b6020020181815250505b6117db565b6118b6878860008151811061187e57fe5b60200260200101516002018151811061189357fe5b602002602001015182896001815181106118a957fe5b6020026020010151612721565b86886000815181106118c457fe5b6020026020010151600201602081106118d957fe5b602002018181525050505050505092915050565b6003602052816000526040600020818154811061190657fe5b90600052602060002001600091509150505481565b60056020528060005260406000206000915090505481565b6000601260003373ffffffffffffffffffffffffffffffffffffffff1673ffffffffffffffffffffffffffffffffffffffff16815260200190815260200160002054146119e8576040517f08c379a00000000000000000000000000000000000000000000000000000000081526004018080602001828103825260128152602001807f63617220697320756e617661696c61626c65000000000000000000000000000081525060200191505060405180910390fd5b601854600e60003373ffffffffffffffffffffffffffffffffffffffff1673ffffffffffffffffffffffffffffffffffffffff168152602001908152602001600020541015611a82576040517f08c379a0000000000000000000000000000000000000000000000000000000008152600401808060200182810382526023815260200180612ad66023913960400191505060405180910390fd5b80601060003373ffffffffffffffffffffffffffffffffffffffff1673ffffffffffffffffffffffffffffffffffffffff16815260200190815260200160002081905550601260003373ffffffffffffffffffffffffffffffffffffffff1673ffffffffffffffffffffffffffffffffffffffff1681526020019081526020016000206000815480929190600101919050555042601360003373ffffffffffffffffffffffffffffffffffffffff1673ffffffffffffffffffffffffffffffffffffffff168152602001908152602001600020819055503373ffffffffffffffffffffffffffffffffffffffff167f85cea8e5c736ca5a3905acb561aaf9c0bfa642f01617802a20a7c5e34ea3dc55826040518082815260200191505060405180910390a250565b60008060007f30644e72e131a029b85045b68181585d97816a916871ca8d3c208c16d87cfd4780611bd757fe5b84850990507f30644e72e131a029b85045b68181585d97816a916871ca8d3c208c16d87cfd4780611c0457fe5b84820990507f30644e72e131a029b85045b68181585d97816a916871ca8d3c208c16d87cfd4780611c3157fe5b60038208905060007f30644e72e131a029b85045b68181585d97816a916871ca8d3c208c16d87cfd47905060007f0c19139cb84c680a6e14116da060561765e05aa45a1c72a34f082305b61f3f52905060405160208152602080820152602060408201528360608201528160808201528260a082015260208160c083600060056107d05a03f18060008114611cc557611cca565b60c083fd5b508151965050507f30644e72e131a029b85045b68181585d97816a916871ca8d3c208c16d87cfd4780611cf957fe5b85860983149350505050915091565b600073ffffffffffffffffffffffffffffffffffffffff16600d60003373ffffffffffffffffffffffffffffffffffffffff1673ffffffffffffffffffffffffffffffffffffffff16815260200190815260200160002060009054906101000a900473ffffffffffffffffffffffffffffffffffffffff1673ffffffffffffffffffffffffffffffffffffffff161415611e0a576040517f08c379a00000000000000000000000000000000000000000000000000000000081526004018080602001828103825260148152602001807f436172206e6f7420796574206465706c6f79656400000000000000000000000081525060200191505060405180910390fd5b6000601260003373ffffffffffffffffffffffffffffffffffffffff1673ffffffffffffffffffffffffffffffffffffffff1681526020019081526020016000205414611ebf576040517f08c379a00000000000000000000000000000000000000000000000000000000081526004018080602001828103825260158152602001807f436172206e6f74207965742076616c696461746564000000000000000000000081525060200191505060405180910390fd5b6001601260003373ffffffffffffffffffffffffffffffffffffffff1673ffffffffffffffffffffffffffffffffffffffff16815260200190815260200160002081905550813373ffffffffffffffffffffffffffffffffffffffff167f2424aeb4c43453297d9f4c2792e99fa2d1a3885a9ec287d129a9eb16b2274bae83600f60003373ffffffffffffffffffffffffffffffffffffffff1673ffffffffffffffffffffffffffffffffffffffff16815260200190815260200160002054604051808381526020018281526020019250505060405180910390a35050565b600081600060028110611fad57fe5b6020020151905060018083600160028110611fc457fe5b6020020151161415611ff6577f8000000000000000000000000000000000000000000000000000000000000000811790505b919050565b7f30644e72e131a029b85045b68181585d97816a916871ca8d3c208c16d87cfd4781565b60026020528060005260406000206000915054906101000a900460ff1681565b6000816002811061204c57fe5b016000915090505481565b7f30644e72e131a029b85045b68181585d2833e84879b9709143e1f593f000000181565b7f800000000000000000000000000000000000000000000000000000000000000081565b6000600760003373ffffffffffffffffffffffffffffffffffffffff1673ffffffffffffffffffffffffffffffffffffffff1681526020019081526020016000205414612154576040517f08c379a00000000000000000000000000000000000000000000000000000000081526004018080602001828103825260158152602001807f72656e74657220697320756e617661696c61626c65000000000000000000000081525060200191505060405180910390fd5b601854600660003373ffffffffffffffffffffffffffffffffffffffff1673ffffffffffffffffffffffffffffffffffffffff1681526020019081526020016000205410156121ee576040517f08c379a0000000000000000000000000000000000000000000000000000000008152600401808060200182810382526023815260200180612ad66023913960400191505060405180910390fd5b81600960003373ffffffffffffffffffffffffffffffffffffffff1673ffffffffffffffffffffffffffffffffffffffff16815260200190815260200160002081905550600760003373ffffffffffffffffffffffffffffffffffffffff1673ffffffffffffffffffffffffffffffffffffffff1681526020019081526020016000206000815480929190600101919050555042600860003373ffffffffffffffffffffffffffffffffffffffff1673ffffffffffffffffffffffffffffffffffffffff168152602001908152602001600020819055503373ffffffffffffffffffffffffffffffffffffffff167f9acfb04083c0e452eddaa9873582de7256d628796658c79c854b2d4cb989e7798383604051808381526020018281526020019250505060405180910390a25050565b612327612a90565b7f80000000000000000000000000000000000000000000000000000000000000001982168160006002811061235857fe5b60200201818152505060008061237e8360006002811061237457fe5b6020020151611baa565b8093508192505050816123c05760008360006002811061239a57fe5b6020020181815250506000836001600281106123b257fe5b6020020181815250506124b3565b60007f8000000000000000000000000000000000000000000000000000000000000000851614612450576001808216141561241157808360016002811061240357fe5b60200201818152505061244b565b807f30644e72e131a029b85045b68181585d97816a916871ca8d3c208c16d87cfd47038360016002811061244157fe5b6020020181815250505b6124b2565b6001808216141561249957807f30644e72e131a029b85045b68181585d97816a916871ca8d3c208c16d87cfd47038360016002811061248b57fe5b6020020181815250506124b1565b80836001600281106124a757fe5b6020020181815250505b5b5b5050919050565b60006124c4612a90565b6124cc612a90565b6124d4612a90565b856000600281106124e157fe5b6020020151866001600281106124f357fe5b60200201518360006002811061250557fe5b602002018460016002811061251657fe5b602002018281525082815250505061252d826127a9565b905061253982896128c6565b91506125826000600280602002604051908101604052809291908260028015612577576020028201915b815481526020019060010190808311612563575b5050505050886128c6565b925061258e828461291f565b915061259a81886128c6565b90506125a685896128c6565b92506125b2818461291f565b90506125bf898383612983565b935050505095945050505050565b60008060018686868660405160008152602001604052604051808581526020018460ff1660ff1681526020018381526020018281526020019450505050506020604051602081039080840390855afa15801561262d573d6000803e3d6000fd5b5050506020604051035190508673ffffffffffffffffffffffffffffffffffffffff168173ffffffffffffffffffffffffffffffffffffffff161491505095945050505050565b61267c612a90565b612685826127a9565b905061269181846128c6565b905092915050565b60006126a3612a90565b6126ab612a90565b6126b4846127a9565b90506126c081866128c6565b905061270960006002806020026040519081016040528092919082600280156126fe576020028201915b8154815260200190600101908083116126ea575b5050505050866128c6565b9150612716868383612983565b925050509392505050565b60007f30644e72e131a029b85045b68181585d2833e84879b9709143e1f593f00000018061274b57fe5b8284099050807f30644e72e131a029b85045b68181585d2833e84879b9709143e1f593f00000010390507f30644e72e131a029b85045b68181585d2833e84879b9709143e1f593f00000018061279d57fe5b81850890509392505050565b6127b1612a90565b60007f30644e72e131a029b85045b68181585d2833e84879b9709143e1f593f0000001836000600281106127e157fe5b6020020151846001600281106127f357fe5b602002015160405160200180838152602001828152602001925050506040516020818303038152906040528051906020012060001c8161282f57fe5b068260006002811061283d57fe5b6020020181815250505b806128a2576128668260006002811061285c57fe5b6020020151611baa565b8360016002811061287357fe5b602002018193508281525050508160006002811061288d57fe5b60200201805180919060010181525050612847565b816000600281106128af57fe5b602002018051809190600190038152505050919050565b6128ce612a90565b6040518351815260208401516020820152826040820152604081606083600060076107d05a03f1806000811461290357612908565b608083fd5b508151835260208201516020840152505092915050565b612927612a90565b60405183518152602084015160208201528251604082015260208301516060820152604081608083600060066107d05a03f180600081146129675761296c565b608083fd5b508151835260208201516020840152505092915050565b60007f30644e72e131a029b85045b68181585d2833e84879b9709143e1f593f000000184846000600281106129b457fe5b6020020151856001600281106129c657fe5b6020020151856000600281106129d857fe5b6020020151866001600281106129ea57fe5b60200201516040516020018086805190602001908083835b60208310612a255780518252602082019150602081019050602083039250612a02565b6001836020036101000a038019825116818451168082178552505050505050905001858152602001848152602001838152602001828152602001955050505050506040516020818303038152906040528051906020012060001c81612a8657fe5b0690509392505050565b6040518060400160405280600290602082028036833780820191505090505090565b60405180610400016040528060209060208202803683378082019150509050509056fe6e6f7420656e6f756768206465706f73697420746f20737461727420626f6f6b696e674e6f7420656e6f756768206465706f73697420746f20656e7465722073797374656d4e6f742074686520617070726f7072696174652076616c756520746f206f70656e206c6f636ba2646970667358221220628488de7f28c8cc61272e8b2c47292b6e70fa2986b641b93fd401a2faa4bd9d64736f6c63430006040033",
  "source": "pragma solidity ^0.6.4;\n/* Author: David De Troch\nThe goal of this contract is to implement the a tumbler that can be used for aggregated car sharing\nproviding an application specifici payment hub. This payment hub is able to provide anonimity between\ncar renter and driver.\nContract consists of thre phases:\n\nPhase 1: Deploy car, renter and tumbler\nPhase 2: Booking and Payment of car\nPhase 3: Withdraw Balance\n*/\nimport './Signature.sol';\n\ncontract carSharing is Signature{\n\n    //Renter Mappings\n    mapping(address => uint)    renter_balance;\n    mapping(address => uint)    renter_state;\n    mapping(address => uint)    renter_start;\n    mapping(address => bytes32) renter_hashLock;\n    mapping(address => bytes32) renter_fee;\n    mapping(address => bytes32) renter_ppc;\n    mapping(address => bool)    renter_validated;\n\n\n    //Car Mappings\n    mapping(address => address) car_owner;\n    mapping(address => uint)    car_balance;\n    mapping(address => uint)    car_price;\n    mapping(address => bytes32) car_hashLock;\n    mapping(address => bytes32) car_token;\n    mapping(address => uint)    car_state;\n    mapping(address => uint)    car_start;\n    mapping(address => bytes32) car_fee;\n    mapping(address => mapping(uint => bool))    car_invoices;\n\n    //Groupings of published fees\n    bytes32[] carFees;\n    bytes32[] renterFees;\n\n    //Constants\n    uint DEPOSIT    = 5 ether;\n    uint PERIOD     = 86400;\n    address REGISTRATION_SERVICE = address(0);\n\n    //Events\n    event E_deployRenter(address indexed _address, bytes32 _ppc);\n    event E_deployCar(address indexed _address, bytes32 _details);\n    event E_carAvailable(address indexed _address, bytes32 indexed _token, bytes32 _location, uint _price);\n    event E_carBooking(address indexed, bytes32 _hashLock);\n    event E_renterBooking(address indexed, bytes32 _hashLock, bytes32 _secretLink);\n    event E_carEnd(address indexed, bytes32 _newLock, uint _fee);\n    event E_renterEnd(address indexed, bytes32 _newLock, bytes32 _Fee);\n    event E_carPaid(address indexed);\n    event E_renterPaid(address indexed);\n\n    //Modifiers\n    modifier checkDeposit(){\n        require(msg.value >= DEPOSIT,'Not enough deposit to enter system');\n        _;\n    }\n\n    modifier carAvailable(){\n        require(car_state[msg.sender] == 0, 'car is unavailable');\n        _;\n    }\n\n    modifier renterAvailable(){\n        require(renter_state[msg.sender] == 0, 'renter is unavailable');\n        _;\n    }\n\n    modifier carBooked(){\n        require(car_state[msg.sender] == 1);\n        _;\n    }\n    modifier renterBooked(){\n        require(renter_state[msg.sender] == 1);\n        _;\n    }\n\n    modifier carEnded(){\n        require(car_state[msg.sender] == 2);\n        _;\n    }\n\n    modifier renterEnded(){\n        require(renter_state[msg.sender] == 2);\n        _;\n    }\n\n    //Phase 1: renter and car are deployed as entities on the blockchain\n    function deployRenter(bytes32 _ppc, uint8 _v, bytes32 _r, bytes32 _s) public payable checkDeposit() {\n        require(isSignatureValid(REGISTRATION_SERVICE, _ppc, _v, _r, _s), \"No valid PPC_renter\");\n        renter_balance[msg.sender] = msg.value;\n        renter_ppc[msg.sender] = _ppc;\n        emit E_deployRenter(msg.sender, _ppc);\n    }\n\n    function deployCar(address _address, bytes32 _details, uint _price) public payable checkDeposit() {\n        car_balance[_address] = msg.value;\n        car_owner[_address] = msg.sender;\n        car_price[_address] = _price;\n        emit E_deployCar(_address, _details);\n    }\n    \n    function validateCar(bytes32 _token, bytes32 _location) public {\n        require(car_owner[msg.sender] != address(0),'Car not yet deployed');\n        require(car_state[msg.sender] == 0, 'Car not yet validated');\n        car_state[msg.sender] = 1;\n        emit E_carAvailable(msg.sender, _token, _location, car_price[msg.sender]);\n    }\n\n    //Phase 2: A booking is initiated\n    function renterBooking(bytes32 _hashLock, bytes32 _secretLink) public renterAvailable() {\n        require(renter_balance[msg.sender] >= DEPOSIT, 'not enough deposit to start booking');\n        renter_hashLock[msg.sender] = _hashLock;\n        renter_state[msg.sender]++;\n        renter_start[msg.sender] = now;\n        emit E_renterBooking(msg.sender, _hashLock, _secretLink);\n    }\n\n    function carBooking(bytes32 _hashLock) public carAvailable() {\n        require(car_balance[msg.sender] >= DEPOSIT, 'not enough deposit to start booking');\n        car_hashLock[msg.sender] = _hashLock;\n        car_state[msg.sender]++;\n        car_start[msg.sender] = now;\n        emit E_carBooking(msg.sender, _hashLock);\n    }\n\n    //Phase 3: Payment & reset state\n    function renterPayment(bytes32 _preimage, uint _fee, uint _random) public renterBooked() {\n        require(renter_fee[msg.sender] == keccak256(abi.encodePacked(_fee, _random)), 'not the valid blinder');\n        require(renter_hashLock[msg.sender] == keccak256(abi.encodePacked(_preimage)), 'Not the appropriate value to open lock');\n        renter_state[msg.sender] = 0;\n        renter_balance[msg.sender] -= _fee;\n    }\n\n    function carPayment(bytes32 _preimage, uint _fee, uint _random, bytes32 _newToken) public carBooked() {\n        require(car_fee[msg.sender] == keccak256(abi.encodePacked(_fee, _random)), 'not the valid blinder');\n        require(car_hashLock[msg.sender] == keccak256(abi.encodePacked(_preimage)), 'Not the appropriate value to open lock');\n        car_state[msg.sender] = 0;\n        car_balance[msg.sender] += _fee;\n        emit E_carPaid(msg.sender); \n    }\n\n    /*function generateSignature(string memory message, uint256 nonce, uint256[] memory data) public returns(uint256[32] memory signature) {\n        return RingSign(message, nonce, data);\n    }\n\n    function isRingSignatureValid(string memory message, uint256 nonce, uint256[] memory signature) public returns(bool){\n        return RingVerify(message, nonce, signature);\n    }*/\n\n    //Dispute resolution dissolves privacy\n    //TO DO\n\n    //Check whether correct address has signed off a certain hashed value\n    function isSignatureValid(address _address, bytes32 _hash, uint8 _v, bytes32 _r, bytes32 _s) private pure returns(bool) {\n        address _signer = ecrecover(_hash, _v, _r, _s);\n        return(_signer == _address);\n    }\n}\n\n\n",
  "sourcePath": "/home/ddt/Thesis_global/CarSharing/Thesis/contracts/massCarSharing.sol",
  "compiler": {
    "name": "solc",
    "version": "0.6.4+commit.1dca32f3.Emscripten.clang"
  },
  "schemaVersion": "3.1.0",
  "updatedAt": "2020-05-21T15:43:32.018Z",
  "devdoc": {
    "methods": {}
  },
  "userdoc": {
    "methods": {}
  }
}