{
  "contractName": "SignatureOrig",
  "abi": [
    {
      "inputs": [],
      "name": "ECSignMask",
      "outputs": [
        {
          "internalType": "uint256",
          "name": "",
          "type": "uint256"
        }
      ],
      "stateMutability": "view",
      "type": "function"
    },
    {
      "inputs": [
        {
          "internalType": "uint256",
          "name": "",
          "type": "uint256"
        }
      ],
      "name": "G1",
      "outputs": [
        {
          "internalType": "uint256",
          "name": "",
          "type": "uint256"
        }
      ],
      "stateMutability": "view",
      "type": "function"
    },
    {
      "inputs": [
        {
          "internalType": "uint256",
          "name": "",
          "type": "uint256"
        }
      ],
      "name": "H",
      "outputs": [
        {
          "internalType": "uint256",
          "name": "",
          "type": "uint256"
        }
      ],
      "stateMutability": "view",
      "type": "function"
    },
    {
      "inputs": [
        {
          "internalType": "uint256",
          "name": "",
          "type": "uint256"
        }
      ],
      "name": "KeyImageUsed",
      "outputs": [
        {
          "internalType": "bool",
          "name": "",
          "type": "bool"
        }
      ],
      "stateMutability": "view",
      "type": "function"
    },
    {
      "inputs": [],
      "name": "N",
      "outputs": [
        {
          "internalType": "uint256",
          "name": "",
          "type": "uint256"
        }
      ],
      "stateMutability": "view",
      "type": "function"
    },
    {
      "inputs": [],
      "name": "P",
      "outputs": [
        {
          "internalType": "uint256",
          "name": "",
          "type": "uint256"
        }
      ],
      "stateMutability": "view",
      "type": "function"
    },
    {
      "inputs": [],
      "name": "a",
      "outputs": [
        {
          "internalType": "uint256",
          "name": "",
          "type": "uint256"
        }
      ],
      "stateMutability": "view",
      "type": "function"
    },
    {
      "inputs": [
        {
          "internalType": "uint256",
          "name": "",
          "type": "uint256"
        },
        {
          "internalType": "uint256",
          "name": "",
          "type": "uint256"
        }
      ],
      "name": "lookup_pubkey_by_balance",
      "outputs": [
        {
          "internalType": "uint256",
          "name": "",
          "type": "uint256"
        }
      ],
      "stateMutability": "view",
      "type": "function"
    },
    {
      "inputs": [
        {
          "internalType": "uint256",
          "name": "",
          "type": "uint256"
        }
      ],
      "name": "lookup_pubkey_by_balance_count",
      "outputs": [
        {
          "internalType": "uint256",
          "name": "",
          "type": "uint256"
        }
      ],
      "stateMutability": "view",
      "type": "function"
    },
    {
      "inputs": [
        {
          "internalType": "uint256",
          "name": "",
          "type": "uint256"
        }
      ],
      "name": "lookup_pubkey_by_balance_populated",
      "outputs": [
        {
          "internalType": "bool",
          "name": "",
          "type": "bool"
        }
      ],
      "stateMutability": "view",
      "type": "function"
    },
    {
      "inputs": [],
      "name": "owner",
      "outputs": [
        {
          "internalType": "address",
          "name": "",
          "type": "address"
        }
      ],
      "stateMutability": "view",
      "type": "function"
    },
    {
      "inputs": [
        {
          "internalType": "address",
          "name": "",
          "type": "address"
        }
      ],
      "name": "token_balance",
      "outputs": [
        {
          "internalType": "uint256",
          "name": "",
          "type": "uint256"
        }
      ],
      "stateMutability": "view",
      "type": "function"
    },
    {
      "inputs": [],
      "name": "RingMixerV2",
      "outputs": [],
      "stateMutability": "nonpayable",
      "type": "function"
    },
    {
      "inputs": [],
      "name": "Kill",
      "outputs": [],
      "stateMutability": "nonpayable",
      "type": "function"
    },
    {
      "inputs": [
        {
          "internalType": "address",
          "name": "destination",
          "type": "address"
        }
      ],
      "name": "Deposit",
      "outputs": [
        {
          "internalType": "bool",
          "name": "success",
          "type": "bool"
        }
      ],
      "stateMutability": "payable",
      "type": "function"
    },
    {
      "inputs": [
        {
          "internalType": "address[]",
          "name": "destination",
          "type": "address[]"
        }
      ],
      "name": "DepositN",
      "outputs": [
        {
          "internalType": "bool",
          "name": "success",
          "type": "bool"
        }
      ],
      "stateMutability": "payable",
      "type": "function"
    },
    {
      "inputs": [
        {
          "internalType": "uint256[2]",
          "name": "p0",
          "type": "uint256[2]"
        },
        {
          "internalType": "uint256[2]",
          "name": "p1",
          "type": "uint256[2]"
        }
      ],
      "name": "ecAdd",
      "outputs": [
        {
          "internalType": "uint256[2]",
          "name": "p2",
          "type": "uint256[2]"
        }
      ],
      "stateMutability": "nonpayable",
      "type": "function"
    },
    {
      "inputs": [
        {
          "internalType": "uint256[2]",
          "name": "p0",
          "type": "uint256[2]"
        },
        {
          "internalType": "uint256",
          "name": "s",
          "type": "uint256"
        }
      ],
      "name": "ecMul",
      "outputs": [
        {
          "internalType": "uint256[2]",
          "name": "p1",
          "type": "uint256[2]"
        }
      ],
      "stateMutability": "nonpayable",
      "type": "function"
    },
    {
      "inputs": [
        {
          "internalType": "uint256[2]",
          "name": "Pin",
          "type": "uint256[2]"
        }
      ],
      "name": "CompressPoint",
      "outputs": [
        {
          "internalType": "uint256",
          "name": "Pout",
          "type": "uint256"
        }
      ],
      "stateMutability": "pure",
      "type": "function"
    },
    {
      "inputs": [
        {
          "internalType": "uint256",
          "name": "x",
          "type": "uint256"
        }
      ],
      "name": "EvaluateCurve",
      "outputs": [
        {
          "internalType": "uint256",
          "name": "y",
          "type": "uint256"
        },
        {
          "internalType": "bool",
          "name": "onCurve",
          "type": "bool"
        }
      ],
      "stateMutability": "nonpayable",
      "type": "function"
    },
    {
      "inputs": [
        {
          "internalType": "uint256",
          "name": "Pin",
          "type": "uint256"
        }
      ],
      "name": "ExpandPoint",
      "outputs": [
        {
          "internalType": "uint256[2]",
          "name": "Pout",
          "type": "uint256[2]"
        }
      ],
      "stateMutability": "nonpayable",
      "type": "function"
    },
    {
      "inputs": [
        {
          "components": [
            {
              "internalType": "address[]",
              "name": "destination",
              "type": "address[]"
            },
            {
              "internalType": "uint256[]",
              "name": "value",
              "type": "uint256[]"
            }
          ],
          "internalType": "struct SignatureOrig.RingMessage",
          "name": "message",
          "type": "tuple"
        },
        {
          "internalType": "uint256[]",
          "name": "data",
          "type": "uint256[]"
        }
      ],
      "name": "RingSign",
      "outputs": [
        {
          "internalType": "uint256[32]",
          "name": "signature",
          "type": "uint256[32]"
        }
      ],
      "stateMutability": "nonpayable",
      "type": "function"
    },
    {
      "inputs": [
        {
          "internalType": "address[]",
          "name": "destination",
          "type": "address[]"
        },
        {
          "internalType": "uint256[]",
          "name": "value",
          "type": "uint256[]"
        },
        {
          "internalType": "uint256[]",
          "name": "data",
          "type": "uint256[]"
        }
      ],
      "name": "RingSign_User",
      "outputs": [
        {
          "internalType": "uint256[32]",
          "name": "signature",
          "type": "uint256[32]"
        }
      ],
      "stateMutability": "nonpayable",
      "type": "function"
    },
    {
      "inputs": [
        {
          "components": [
            {
              "internalType": "address[]",
              "name": "destination",
              "type": "address[]"
            },
            {
              "internalType": "uint256[]",
              "name": "value",
              "type": "uint256[]"
            }
          ],
          "internalType": "struct SignatureOrig.RingMessage",
          "name": "message",
          "type": "tuple"
        },
        {
          "internalType": "uint256[]",
          "name": "signature",
          "type": "uint256[]"
        }
      ],
      "name": "RingVerify",
      "outputs": [
        {
          "internalType": "bool",
          "name": "success",
          "type": "bool"
        }
      ],
      "stateMutability": "nonpayable",
      "type": "function"
    },
    {
      "inputs": [
        {
          "internalType": "address[]",
          "name": "destination",
          "type": "address[]"
        },
        {
          "internalType": "uint256[]",
          "name": "value",
          "type": "uint256[]"
        },
        {
          "internalType": "uint256[]",
          "name": "signature",
          "type": "uint256[]"
        }
      ],
      "name": "RingVerify_User",
      "outputs": [
        {
          "internalType": "bool",
          "name": "success",
          "type": "bool"
        }
      ],
      "stateMutability": "nonpayable",
      "type": "function"
    }
  ],
  "bytecode": "0x608060405234801561001057600080fd5b50612310806100206000396000f3fe6080604052600436106101665760003560e01c80638ce0bd46116100d1578063be26733c1161008a578063d60ba19f11610064578063d60ba19f146105f2578063e0e5ade714610622578063e4bf28c11461065f578063e7365cd51461068a57610166565b8063be26733c14610573578063c9e525df1461058a578063d1ea8f96146105b557610166565b80638ce0bd46146104245780638da5cb5b146104545780639216084d1461047f578063a867d0ca146104bc578063ac349f44146104f9578063bb3140091461053657610166565b80635da7f69e116101235780635da7f69e146102c757806366230bd91461030457806371b1c1611461034257806371de37241461037f5780637b84da5d146103bc5780638b8fbd92146103f957610166565b80630dbe671f1461016b578063105ae03a146101965780632428766e146101d3578063418ee0561461021057806347ab063a1461024d57806351e50bfb1461028a575b600080fd5b34801561017757600080fd5b506101806106a1565b60405161018d919061203c565b60405180910390f35b3480156101a257600080fd5b506101bd60048036038101906101b89190611b08565b6106c5565b6040516101ca919061203c565b60405180910390f35b3480156101df57600080fd5b506101fa60048036038101906101f59190611d16565b6106dd565b6040516102079190612021565b60405180910390f35b34801561021c57600080fd5b5061023760048036038101906102329190611d3f565b6106fd565b604051610244919061203c565b60405180910390f35b34801561025957600080fd5b50610274600480360381019061026f9190611caa565b61072b565b6040516102819190612021565b60405180910390f35b34801561029657600080fd5b506102b160048036038101906102ac9190611d16565b610833565b6040516102be919061203c565b60405180910390f35b3480156102d357600080fd5b506102ee60048036038101906102e99190611d16565b61084b565b6040516102fb9190611fea565b60405180910390f35b34801561031057600080fd5b5061032b60048036038101906103269190611d16565b6109e6565b604051610339929190612057565b60405180910390f35b34801561034e57600080fd5b5061036960048036038101906103649190611c09565b610b44565b604051610376919061203c565b60405180910390f35b34801561038b57600080fd5b506103a660048036038101906103a19190611c6e565b610ba1565b6040516103b39190611fea565b60405180910390f35b3480156103c857600080fd5b506103e360048036038101906103de9190611b72565b610bfa565b6040516103f09190612005565b60405180910390f35b34801561040557600080fd5b5061040e610c29565b60405161041b919061203c565b60405180910390f35b61043e60048036038101906104399190611b08565b610c4d565b60405161044b9190612021565b60405180910390f35b34801561046057600080fd5b50610469610cf4565b6040516104769190611f60565b60405180910390f35b34801561048b57600080fd5b506104a660048036038101906104a19190611d16565b610d19565b6040516104b3919061203c565b60405180910390f35b3480156104c857600080fd5b506104e360048036038101906104de9190611c32565b610d31565b6040516104f09190611fea565b60405180910390f35b34801561050557600080fd5b50610520600480360381019061051b9190611caa565b610d95565b60405161052d9190612005565b60405180910390f35b34801561054257600080fd5b5061055d60048036038101906105589190611d16565b611041565b60405161056a919061203c565b60405180910390f35b34801561057f57600080fd5b50610588611059565b005b34801561059657600080fd5b5061059f6110cb565b6040516105ac919061203c565b60405180910390f35b3480156105c157600080fd5b506105dc60048036038101906105d79190611b72565b6110ef565b6040516105e99190612021565b60405180910390f35b61060c60048036038101906106079190611b31565b611118565b6040516106199190612021565b60405180910390f35b34801561062e57600080fd5b5061064960048036038101906106449190611d16565b611220565b6040516106569190612021565b60405180910390f35b34801561066b57600080fd5b50610674611240565b604051610681919061203c565b60405180910390f35b34801561069657600080fd5b5061069f611264565b005b7f0c19139cb84c680a6e14116da060561765e05aa45a1c72a34f082305b61f3f5281565b60066020528060005260406000206000915090505481565b60086020528060005260406000206000915054906101000a900460ff1681565b6007602052816000526040600020818154811061071657fe5b90600052602060002001600091509150505481565b600060068251101561073c57600080fd5b6000600283518161074957fe5b061461075457600080fd5b61075c611738565b610764611738565b60008460018151811061077357fe5b6020026020010151905061079a8560008151811061078d57fe5b602002602001015161084b565b915060008090506000600280885103816107b057fe5b0490505b8082101561080f576107dd87838360020101815181106107d057fe5b602002602001015161084b565b945061080288848985600201815181106107f357fe5b60200260200101518888611325565b92506001820191506107b4565b8660018151811061081c57fe5b602002602001015183149550505050505092915050565b60096020528060005260406000206000915090505481565b610853611738565b7f80000000000000000000000000000000000000000000000000000000000000001982168160006002811061088457fe5b6020020181815250506000806108aa836000600281106108a057fe5b60200201516109e6565b8093508192505050816108ec576000836000600281106108c657fe5b6020020181815250506000836001600281106108de57fe5b6020020181815250506109df565b60007f800000000000000000000000000000000000000000000000000000000000000085161461097c576001808216141561093d57808360016002811061092f57fe5b602002018181525050610977565b807f30644e72e131a029b85045b68181585d97816a916871ca8d3c208c16d87cfd47038360016002811061096d57fe5b6020020181815250505b6109de565b600180821614156109c557807f30644e72e131a029b85045b68181585d97816a916871ca8d3c208c16d87cfd4703836001600281106109b757fe5b6020020181815250506109dd565b80836001600281106109d357fe5b6020020181815250505b5b5b5050919050565b60008060007f30644e72e131a029b85045b68181585d97816a916871ca8d3c208c16d87cfd4780610a1357fe5b84850990507f30644e72e131a029b85045b68181585d97816a916871ca8d3c208c16d87cfd4780610a4057fe5b84820990507f30644e72e131a029b85045b68181585d97816a916871ca8d3c208c16d87cfd4780610a6d57fe5b60038208905060007f30644e72e131a029b85045b68181585d97816a916871ca8d3c208c16d87cfd47905060007f0c19139cb84c680a6e14116da060561765e05aa45a1c72a34f082305b61f3f52905060405160208152602080820152602060408201528360608201528160808201528260a082015260208160c083600060056107d05a03f18060008114610b0157610b06565b60c083fd5b508151965050507f30644e72e131a029b85045b68181585d97816a916871ca8d3c208c16d87cfd4780610b3557fe5b85860983149350505050915091565b600081600060028110610b5357fe5b6020020151905060018083600160028110610b6a57fe5b6020020151161415610b9c577f8000000000000000000000000000000000000000000000000000000000000000811790505b919050565b610ba9611738565b6040518351815260208401516020820152826040820152604081606083600060076107d05a03f18060008114610bde57610be3565b608083fd5b508151835260208201516020840152505092915050565b610c0261175a565b610c2060405180604001604052808681526020018581525083610d95565b90509392505050565b7f30644e72e131a029b85045b68181585d97816a916871ca8d3c208c16d87cfd4781565b600080600660008473ffffffffffffffffffffffffffffffffffffffff1673ffffffffffffffffffffffffffffffffffffffff1681526020019081526020016000205414610c9a57600080fd5b60003411610ca757600080fd5b34600660008473ffffffffffffffffffffffffffffffffffffffff1673ffffffffffffffffffffffffffffffffffffffff1681526020019081526020016000208190555060019050919050565b6000809054906101000a900473ffffffffffffffffffffffffffffffffffffffff1681565b60018160028110610d2657fe5b016000915090505481565b610d39611738565b60405183518152602084015160208201528251604082015260208301516060820152604081608083600060066107d05a03f18060008114610d7957610d7e565b608083fd5b508151835260208201516020840152505092915050565b610d9d61175a565b600682511015610dac57600080fd5b602082511115610dbb57600080fd5b60006002835181610dc857fe5b0614610dd357600080fd5b600060028084510381610de257fe5b0490506000600290505b8351811015610e2b57838181518110610e0157fe5b6020026020010151838260208110610e1557fe5b6020020181815250508080600101915050610dec565b610e33611738565b610e3b611738565b600084600188600081518110610e4d57fe5b60200260200101510181610e5d57fe5b069350610e958788600081518110610e7157fe5b6020026020010151876002010181518110610e8857fe5b602002602001015161084b565b9250610eb587600181518110610ea757fe5b602002602001015184611438565b9150610ec082610b44565b86600060208110610ecd57fe5b602002018181525050610f0b888889600081518110610ee857fe5b602002602001015160020181518110610efd57fe5b60200260200101518561145d565b90506000841415610f2e578086600160208110610f2457fe5b6020020181815250505b5b86600081518110610f3c57fe5b60200260200101518414610fc157610f6b8785876002010181518110610f5e57fe5b602002602001015161084b565b9250610f908882898760020181518110610f8157fe5b60200260200101518686611325565b905060018401935084841415610fbc57600093508086600160208110610fb257fe5b6020020181815250505b610f2f565b61100a8788600081518110610fd257fe5b602002602001015160020181518110610fe757fe5b60200260200101518289600181518110610ffd57fe5b60200260200101516114e5565b868860008151811061101857fe5b60200260200101516002016020811061102d57fe5b602002018181525050505050505092915050565b6003816002811061104e57fe5b016000915090505481565b6000809054906101000a900473ffffffffffffffffffffffffffffffffffffffff1673ffffffffffffffffffffffffffffffffffffffff163373ffffffffffffffffffffffffffffffffffffffff16146110b257600080fd5b3373ffffffffffffffffffffffffffffffffffffffff16ff5b7f30644e72e131a029b85045b68181585d2833e84879b9709143e1f593f000000181565b600061110f6040518060400160405280868152602001858152508361072b565b90509392505050565b60008082511161112757600080fd5b6000341161113457600080fd5b60008251348161114057fe5b04905060008090505b83518110156112155760006006600086848151811061116457fe5b602002602001015173ffffffffffffffffffffffffffffffffffffffff1673ffffffffffffffffffffffffffffffffffffffff16815260200190815260200160002054146111b157600080fd5b81600660008684815181106111c257fe5b602002602001015173ffffffffffffffffffffffffffffffffffffffff1673ffffffffffffffffffffffffffffffffffffffff168152602001908152602001600020819055508080600101915050611149565b506001915050919050565b60056020528060005260406000206000915054906101000a900460ff1681565b7f800000000000000000000000000000000000000000000000000000000000000081565b336000806101000a81548173ffffffffffffffffffffffffffffffffffffffff021916908373ffffffffffffffffffffffffffffffffffffffff1602179055506001806000600281106112b357fe5b01819055506002600180600281106112c757fe5b01819055506113126001600280602002604051908101604052809291908260028015611308576020028201915b8154815260200190600101908083116112f4575b505050505061156d565b600390600261132292919061177d565b50565b600061132f611738565b611337611738565b61133f611738565b8560006002811061134c57fe5b60200201518660016002811061135e57fe5b60200201518360006002811061137057fe5b602002018460016002811061138157fe5b60200201828152508281525050506113988261156d565b90506113a48289610ba1565b91506113ed60016002806020026040519081016040528092919082600280156113e2576020028201915b8154815260200190600101908083116113ce575b505050505088610ba1565b92506113f98284610d31565b91506114058188610ba1565b90506114118589610ba1565b925061141d8184610d31565b905061142a898383611684565b935050505095945050505050565b611440611738565b6114498261156d565b90506114558184610ba1565b905092915050565b6000611467611738565b61146f611738565b6114788461156d565b90506114848186610ba1565b90506114cd60016002806020026040519081016040528092919082600280156114c2576020028201915b8154815260200190600101908083116114ae575b505050505086610ba1565b91506114da868383611684565b925050509392505050565b60007f30644e72e131a029b85045b68181585d2833e84879b9709143e1f593f00000018061150f57fe5b8284099050807f30644e72e131a029b85045b68181585d2833e84879b9709143e1f593f00000010390507f30644e72e131a029b85045b68181585d2833e84879b9709143e1f593f00000018061156157fe5b81850890509392505050565b611575611738565b60007f30644e72e131a029b85045b68181585d2833e84879b9709143e1f593f0000001836000600281106115a557fe5b6020020151846001600281106115b757fe5b60200201516040516020016115cd929190612080565b6040516020818303038152906040528051906020012060001c816115ed57fe5b06826000600281106115fb57fe5b6020020181815250505b80611660576116248260006002811061161a57fe5b60200201516109e6565b8360016002811061163157fe5b602002018193508281525050508160006002811061164b57fe5b60200201805180919060010181525050611605565b8160006002811061166d57fe5b602002018051809190600190038152505050919050565b60007f30644e72e131a029b85045b68181585d2833e84879b9709143e1f593f000000184600001518560200151856000600281106116be57fe5b6020020151866001600281106116d057fe5b6020020151866000600281106116e257fe5b6020020151876001600281106116f457fe5b602002015160405160200161170e96959493929190611f7b565b6040516020818303038152906040528051906020012060001c8161172e57fe5b0690509392505050565b6040518060400160405280600290602082028036833780820191505090505090565b604051806104000160405280602090602082028036833780820191505090505090565b82600281019282156117ac579160200282015b828111156117ab578251825591602001919060010190611790565b5b5090506117b991906117bd565b5090565b6117df91905b808211156117db5760008160009055506001016117c3565b5090565b90565b6000813590506117f1816122ac565b92915050565b600082601f83011261180857600080fd5b813561181b611816826120d6565b6120a9565b9150818183526020840193506020810190508385602084028201111561184057600080fd5b60005b83811015611870578161185688826117e2565b845260208401935060208301925050600181019050611843565b5050505092915050565b600082601f83011261188b57600080fd5b813561189e611899826120fe565b6120a9565b915081818352602084019350602081019050838560208402820111156118c357600080fd5b60005b838110156118f357816118d988826117e2565b8452602084019350602083019250506001810190506118c6565b5050505092915050565b600082601f83011261190e57600080fd5b600261192161191c82612126565b6120a9565b9150818385602084028201111561193757600080fd5b60005b83811015611967578161194d8882611af3565b84526020840193506020830192505060018101905061193a565b5050505092915050565b600082601f83011261198257600080fd5b813561199561199082612148565b6120a9565b915081818352602084019350602081019050838560208402820111156119ba57600080fd5b60005b838110156119ea57816119d08882611af3565b8452602084019350602083019250506001810190506119bd565b5050505092915050565b600082601f830112611a0557600080fd5b8135611a18611a1382612170565b6120a9565b91508181835260208401935060208101905083856020840282011115611a3d57600080fd5b60005b83811015611a6d5781611a538882611af3565b845260208401935060208301925050600181019050611a40565b5050505092915050565b600060408284031215611a8957600080fd5b611a9360406120a9565b9050600082013567ffffffffffffffff811115611aaf57600080fd5b611abb848285016117f7565b600083015250602082013567ffffffffffffffff811115611adb57600080fd5b611ae784828501611971565b60208301525092915050565b600081359050611b02816122c3565b92915050565b600060208284031215611b1a57600080fd5b6000611b28848285016117e2565b91505092915050565b600060208284031215611b4357600080fd5b600082013567ffffffffffffffff811115611b5d57600080fd5b611b698482850161187a565b91505092915050565b600080600060608486031215611b8757600080fd5b600084013567ffffffffffffffff811115611ba157600080fd5b611bad8682870161187a565b935050602084013567ffffffffffffffff811115611bca57600080fd5b611bd6868287016119f4565b925050604084013567ffffffffffffffff811115611bf357600080fd5b611bff868287016119f4565b9150509250925092565b600060408284031215611c1b57600080fd5b6000611c29848285016118fd565b91505092915050565b60008060808385031215611c4557600080fd5b6000611c53858286016118fd565b9250506040611c64858286016118fd565b9150509250929050565b60008060608385031215611c8157600080fd5b6000611c8f858286016118fd565b9250506040611ca085828601611af3565b9150509250929050565b60008060408385031215611cbd57600080fd5b600083013567ffffffffffffffff811115611cd757600080fd5b611ce385828601611a77565b925050602083013567ffffffffffffffff811115611d0057600080fd5b611d0c858286016119f4565b9150509250929050565b600060208284031215611d2857600080fd5b6000611d3684828501611af3565b91505092915050565b60008060408385031215611d5257600080fd5b6000611d6085828601611af3565b9250506020611d7185828601611af3565b9150509250929050565b6000611d878383611dab565b60208301905092915050565b6000611d9f8383611f42565b60208301905092915050565b611db481612264565b82525050565b611dc381612264565b82525050565b6000611dd4826121cc565b611dde818561222c565b9350611de983612198565b8060005b83811015611e1a578151611e018882611d7b565b9750611e0c836121f8565b925050600181019050611ded565b5085935050505092915050565b611e30816121d7565b611e3a818461223d565b9250611e45826121a8565b8060005b83811015611e76578151611e5d8782611d93565b9650611e6883612205565b925050600181019050611e49565b505050505050565b611e87816121e2565b611e918184612248565b9250611e9c826121b2565b8060005b83811015611ecd578151611eb48782611d93565b9650611ebf83612212565b925050600181019050611ea0565b505050505050565b6000611ee0826121ed565b611eea8185612253565b9350611ef5836121bc565b8060005b83811015611f26578151611f0d8882611d93565b9750611f188361221f565b925050600181019050611ef9565b5085935050505092915050565b611f3c81612276565b82525050565b611f4b816122a2565b82525050565b611f5a816122a2565b82525050565b6000602082019050611f756000830184611dba565b92915050565b600060c0820190508181036000830152611f958189611dc9565b90508181036020830152611fa98188611ed5565b9050611fb86040830187611f51565b611fc56060830186611f51565b611fd26080830185611f51565b611fdf60a0830184611f51565b979650505050505050565b6000604082019050611fff6000830184611e27565b92915050565b60006104008201905061201b6000830184611e7e565b92915050565b60006020820190506120366000830184611f33565b92915050565b60006020820190506120516000830184611f51565b92915050565b600060408201905061206c6000830185611f51565b6120796020830184611f33565b9392505050565b60006040820190506120956000830185611f51565b6120a26020830184611f51565b9392505050565b6000604051905081810181811067ffffffffffffffff821117156120cc57600080fd5b8060405250919050565b600067ffffffffffffffff8211156120ed57600080fd5b602082029050602081019050919050565b600067ffffffffffffffff82111561211557600080fd5b602082029050602081019050919050565b600067ffffffffffffffff82111561213d57600080fd5b602082029050919050565b600067ffffffffffffffff82111561215f57600080fd5b602082029050602081019050919050565b600067ffffffffffffffff82111561218757600080fd5b602082029050602081019050919050565b6000819050602082019050919050565b6000819050919050565b6000819050919050565b6000819050602082019050919050565b600081519050919050565b600060029050919050565b600060209050919050565b600081519050919050565b6000602082019050919050565b6000602082019050919050565b6000602082019050919050565b6000602082019050919050565b600082825260208201905092915050565b600081905092915050565b600081905092915050565b600082825260208201905092915050565b600061226f82612282565b9050919050565b60008115159050919050565b600073ffffffffffffffffffffffffffffffffffffffff82169050919050565b6000819050919050565b6122b581612264565b81146122c057600080fd5b50565b6122cc816122a2565b81146122d757600080fd5b5056fea2646970667358221220cfbcc4d53d98139fe6977a3eea1565010021b78ae2835f8f5dcdb07b7e03ce2464736f6c63430006040033",
  "source": "pragma solidity ^0.6.4;\npragma experimental ABIEncoderV2;\n\ncontract SignatureOrig {\n    //Debug Code\n    address public owner;\n    function RingMixerV2() public {\n        //Debug Code\n        owner = msg.sender;\n        \n        G1[0] = 1;\n        G1[1] = 2;\n        H = HashPoint(G1);\n    }\n    \n    function Kill() public {\n        if (msg.sender != owner) revert();\n\n        selfdestruct(msg.sender);\n    }\n    \n    //alt_bn128 constants\n    uint256[2] public G1;\n    uint256[2] public H;\n    uint256 constant public N = 0x30644e72e131a029b85045b68181585d2833e84879b9709143e1f593f0000001;\n    uint256 constant public P = 0x30644e72e131a029b85045b68181585d97816a916871ca8d3c208c16d87cfd47;\n\n    //Used for Point Compression/Decompression\n    uint256 constant public ECSignMask = 0x8000000000000000000000000000000000000000000000000000000000000000;\n    uint256 constant public a = 0xc19139cb84c680a6e14116da060561765e05aa45a1c72a34f082305b61f3f52; // (p+1)/4\n    \n    //Ring message - Standard interface for ring signatures\n    struct RingMessage {\n        address[] destination;\n        uint256[] value;\n    }\n   \n    //Storage of Spent Key Images\n    mapping (uint256 => bool) public KeyImageUsed;\n    \n    //Storage of Token Balances\n    mapping (address => uint256) public token_balance;\n    \n    //Convenience tables for looking up acceptable mix-in keys\n    mapping (uint256 => uint256[]) public lookup_pubkey_by_balance;\n    mapping (uint256 => bool) public lookup_pubkey_by_balance_populated;\n    mapping (uint256 => uint256) public lookup_pubkey_by_balance_count;\n    \n    //Transaction Functions\n    //Deposit Ether as RingMixer tokens to the specified RingMixer address\n    function Deposit(address destination)\n        payable public returns (bool success)\n    {\n        //Address must have a zero balance (never used)\n        require(token_balance[destination] == 0);\n        \n        //Incoming Value must be non-zero\n        require(msg.value > 0);\n        \n        //Add tokens to balance corrosponding to the amount of Ether\n        token_balance[destination] = msg.value;\n        success = true;\n    }\n    \n    //Equally distribute Ether as RingMixer tokens to the specified RingMixer addresses\n    function DepositN(address[] memory destination)\n        payable public returns (bool success)\n    {\n        //Must have more than one address specified\n        require(destination.length > 0);\n        \n        //Incoming Value must be non-zero\n        require(msg.value > 0);\n            \n        uint256 value = msg.value / destination.length;\n        for (uint i = 0; i < destination.length; i++) {\n            //Address must have a zero balance (never used)\n            require(token_balance[destination[i]] == 0);\n            \n            //Add tokens to balance corrosponding to the amount of Ether\n            token_balance[destination[i]] = value;\n        }\n        \n        success = true;\n    }\n    \n    //=== RingVerifyN ===\n    //Inputs:\n    //  destination (address[]) - list of payable ETH addresses\n    //  value (uint256[]) - list of values corrosponding to the destination\n    //  signature (uint256[2*N+2]) - ring signature\n    //      signature[0] - keyimage for private key (compressed)\n    //      signature[1] - c0 - start of ring signature - scaler for PublicKey[0]\n    //      signature[2     ... 2+(N-1)] - s0...s[N-1], scalar for G1\n    //      signature[2+N   ... 2*N+1  ] - Public Keys (compressed) - total of N Public Keys\n    //      signature[2*N+2 ... 31     ] - Padding (0)\n    //      e.g. N=3; signature = { Ik, c0, s0, s1, s2, PubKey0, PubKey1, PubKey2 }\n    //Outputs:\n    //  success (bool) - true/false indicating if signature is valid on message\n    \n    \n    //Base EC Functions\n    function ecAdd(uint256[2] memory p0, uint256[2] memory p1)\n        public returns (uint256[2] memory p2)\n    {\n        assembly {\n            //Get Free Memory Pointer\n            let p := mload(0x40)\n            \n            //Store Data for ECAdd Call\n            mstore(p, mload(p0))\n            mstore(add(p, 0x20), mload(add(p0, 0x20)))\n            mstore(add(p, 0x40), mload(p1))\n            mstore(add(p, 0x60), mload(add(p1, 0x20)))\n            \n            //Call ECAdd\n            let success := call(sub(gas(), 2000), 0x06, 0, p, 0x80, p, 0x40)\n            \n            // Use \"invalid\" to make gas estimation work\n \t\t\tswitch success case 0 { revert(p, 0x80) }\n \t\t\t\n \t\t\t//Store Return Data\n \t\t\tmstore(p2, mload(p))\n \t\t\tmstore(add(p2, 0x20), mload(add(p,0x20)))\n        }\n    }\n    \n    function ecMul(uint256[2] memory p0, uint256 s)\n        public returns (uint256[2] memory p1)\n    {\n        assembly {\n            //Get Free Memory Pointer\n            let p := mload(0x40)\n            \n            //Store Data for ECMul Call\n            mstore(p, mload(p0))\n            mstore(add(p, 0x20), mload(add(p0, 0x20)))\n            mstore(add(p, 0x40), s)\n            \n            //Call ECAdd\n            let success := call(sub(gas(), 2000), 0x07, 0, p, 0x60, p, 0x40)\n            \n            // Use \"invalid\" to make gas estimation work\n \t\t\tswitch success case 0 { revert(p, 0x80) }\n \t\t\t\n \t\t\t//Store Return Data\n \t\t\tmstore(p1, mload(p))\n \t\t\tmstore(add(p1, 0x20), mload(add(p,0x20)))\n        }\n    }\n    \n    function CompressPoint(uint256[2] memory Pin)\n        public pure returns (uint256 Pout)\n    {\n        //Store x value\n        Pout = Pin[0];\n        \n        //Determine Sign\n        if ((Pin[1] & 0x1) == 0x1) {\n            Pout |= ECSignMask;\n        }\n    }\n    \n    function EvaluateCurve(uint256 x)\n        public returns (uint256 y, bool onCurve)\n    {\n        uint256 y_squared = mulmod(x,x, P);\n        y_squared = mulmod(y_squared, x, P);\n        y_squared = addmod(y_squared, 3, P);\n        \n        uint256 p_local = P;\n        uint256 a_local = a;\n        \n        assembly {\n            //Get Free Memory Pointer\n            let p := mload(0x40)\n            \n            //Store Data for Big Int Mod Exp Call\n            mstore(p, 0x20)                 //Length of Base\n            mstore(add(p, 0x20), 0x20)      //Length of Exponent\n            mstore(add(p, 0x40), 0x20)      //Length of Modulus\n            mstore(add(p, 0x60), y_squared) //Base\n            mstore(add(p, 0x80), a_local)   //Exponent\n            mstore(add(p, 0xA0), p_local)   //Modulus\n            \n            //Call Big Int Mod Exp\n            let success := call(sub(gas(), 2000), 0x05, 0, p, 0xC0, p, 0x20)\n            \n            // Use \"invalid\" to make gas estimation work\n \t\t\tswitch success case 0 { revert(p, 0xC0) }\n \t\t\t\n \t\t\t//Store Return Data\n \t\t\ty := mload(p)\n        }\n        \n        //Check Answer\n        onCurve = (y_squared == mulmod(y, y, P));\n    }\n    \n    function ExpandPoint(uint256 Pin)\n        public returns (uint256[2] memory Pout)\n    {\n        //Get x value (mask out sign bit)\n        Pout[0] = Pin & (~ECSignMask);\n        \n        //Get y value\n        bool onCurve;\n        uint256 y;\n        (y, onCurve) = EvaluateCurve(Pout[0]);\n        \n        //TODO: Find better failure case for point not on curve\n        if (!onCurve) {\n            Pout[0] = 0;\n            Pout[1] = 0;\n        }\n        else {\n            //Use Positive Y\n            if ((Pin & ECSignMask) != 0) {\n                if ((y & 0x1) == 0x1) {\n                    Pout[1] = y;\n                } else {\n                    Pout[1] = P - y;\n                }\n            }\n            //Use Negative Y\n            else {\n                if ((y & 0x1) == 0x1) {\n                    Pout[1] = P - y;\n                } else {\n                    Pout[1] = y;\n                }\n            }\n        }\n    }\n    \n    //=====Ring Signature Functions=====\n    function HashFunction(RingMessage memory message, uint256[2] memory left, uint256[2] memory right)\n        internal pure returns (uint256 h)\n    {\n        return (uint256(keccak256(abi.encode(message.destination, message.value, left[0], left[1], right[0], right[1]))) % N);\n    }\n    \n    //Return H = alt_bn128 evaluated at keccak256(p)\n    function HashPoint(uint256[2] memory p)\n        internal returns (uint256[2] memory h)\n    {\n        bool onCurve;\n        h[0] = uint256(keccak256(abi.encode(p[0], p[1]))) % N;\n        \n        while(!onCurve) {\n            (h[1], onCurve) = EvaluateCurve(h[0]);\n            h[0]++;\n        }\n        h[0]--;\n    }\n\n    function KeyImage(uint256 xk, uint256[2] memory Pk)\n        internal returns (uint256[2] memory Ix)\n    {\n        //Ix = xk * HashPoint(Pk)\n        Ix = HashPoint(Pk);\n        Ix = ecMul(Ix, xk);\n    }\n    \n    function RingStartingSegment(RingMessage memory message, uint256 alpha, uint256[2] memory P0)\n        internal returns (uint256 c0)\n    {\n        //Memory Registers\n        uint256[2] memory left;\n        uint256[2] memory right;\n        \n        right = HashPoint(P0);\n        right = ecMul(right, alpha);\n        left = ecMul(G1, alpha);\n        \n        c0 = HashFunction(message, left, right);\n    }\n    \n    function RingSegment(RingMessage memory message, uint256 c0, uint256 s0, uint256[2] memory P0, uint256[2] memory Ix)\n        internal returns (uint256 c1)\n    {\n        //Memory Registers\n        uint256[2] memory temp;\n        uint256[2] memory left;\n        uint256[2] memory right;\n        \n        //Deserialize Point\n        (left[0], left[1]) = (P0[0], P0[1]);\n        right = HashPoint(left);\n        \n        //Calculate left = c*P0 + s0*G1)\n        left = ecMul(left, c0);\n        temp = ecMul(G1, s0);\n        left = ecAdd(left, temp);\n        \n        //Calculate right = s0*H(P0) + c*Ix\n        right = ecMul(right, s0);\n        temp = ecMul(Ix, c0);\n        right = ecAdd(right, temp);\n        \n        c1 = HashFunction(message, left, right);\n    }\n    \n    //SubMul = (alpha - c*xk) % N\n    function SubMul(uint256 alpha, uint256 c, uint256 xk)\n        internal pure returns (uint256 s)\n    {\n        s = mulmod(c, xk, N);\n        s = N - s;\n        s = addmod(alpha, s, N);        \n    }\n    \n    //=== RingSignatureN ===\n    //Inputs:\n    //  message (RingMessage) - to be signed by the ring signature\n    //  data (uint256[2*N+2]) - required data to form the signature where N is the number of Public Keys (ring size)\n    //      data[0] - index from 0 to (N-1) specifying which Public Key has a known private key\n    //      data[1] - corrosponding private key for PublicKey[k]\n    //      data[2   ... 2+(N-1)] - Random Numbers - total of N random numbers\n    //      data[2+N ... 2*N+1  ] - Public Keys (compressed) - total of N Public Keys\n    //      e.g. N=3; data = {k, PrivateKey_k, random0, random1, random2, PubKey0, PubKey1, PubKey2 }\n    //\n    //Outputs:\n    //  signature (uint256[32]) - resulting signature\n    //      signature[0] - keyimage for private key (compressed)\n    //      signature[1] - c0 - start of ring signature - scaler for PublicKey[0]\n    //      signature[2     ... 2+(N-1)] - s0...s[N-1], scalar for G1\n    //      signature[2+N   ... 2*N+1  ] - Public Keys (compressed) - total of N Public Keys\n    //      signature[2*N+2 ... 31     ] - Padding (0)\n    //      e.g. N=3; signature = { Ik, c0, s0, s1, s2, PubKey0, PubKey1, PubKey2 }\n    function RingSign(RingMessage memory message, uint256[] memory data)\n        public returns (uint256[32] memory signature)\n    {\n        //Check Array Lengths\n        require( data.length >= 6 ); //Minimum size (2 PubKeys) = (2*2+2) = 6\n        require( data.length <= 32); //Max size - will only output 32 uint256's\n        require( (data.length % 2) == 0 ); //data.length must be even\n        uint256 ring_size = (data.length - 2) / 2;\n        uint i;\n        \n        //Copy Random Numbers (most will become s-values) and Public Keys\n        for (i = 2; i < data.length; i++) {\n            signature[i] = data[i];\n        }\n        \n        //Memory Registers\n        uint256[2] memory pubkey;\n        uint256[2] memory keyimage;\n        uint256 c;\n        \n        //Setup Indices\n        i = (data[0] + 1) % ring_size;\n        \n        //Calculate Key Image\n        pubkey = ExpandPoint(data[2+ring_size+data[0]]);\n        keyimage = KeyImage(data[1], pubkey);\n        signature[0] = CompressPoint(keyimage);\n        \n        //Calculate Starting c = hash( message, alpha*G1, alpha*HashPoint(Pk) )\n        c = RingStartingSegment(message, data[2+data[0]], pubkey);\n        if (i == 0) {\n            signature[1] = c;\n        }\n        \n        for (; i != data[0];) {\n            //Deserialize Point and calculate next Ring Segment\n            pubkey = ExpandPoint(data[2+ring_size+i]);\n            \n            c = RingSegment(message, c, data[2+i], pubkey, keyimage);\n    \n            //Increment Counters\n            i = i + 1;\n            \n            // Roll counters over\n            if (i == ring_size) {\n                i = 0;\n                signature[1] = c;\n            }\n        }\n        \n        //Calculate s s.t. alpha*G1 = c1*P1 + s1*G1 = (c1*x1 + s1) * G1\n        //s = alpha - c1*x1\n        signature[2+data[0]] = SubMul(data[2+data[0]], c, data[1]);\n    }\n    \n    function RingSign_User(address[] memory destination, uint256[] memory value, uint256[] memory data)\n        public returns (uint256[32] memory signature)\n    {\n        return RingSign(RingMessage(destination, value), data);\n    }\n    \n    //=== RingVerifyN ===\n    //Inputs:\n    //  message (RingMessage) - signed by the ring signature\n    //  signature (uint256[2*N+2]) - ring signature\n    //      signature[0] - keyimage for private key (compressed)\n    //      signature[1] - c0 - start of ring signature - scaler for PublicKey[0]\n    //      signature[2     ... 2+(N-1)] - s0...s[N-1], scalar for G1\n    //      signature[2+N   ... 2*N+1  ] - Public Keys (compressed) - total of N Public Keys\n    //      signature[2*N+2 ... 31     ] - Padding (0)\n    //      e.g. N=3; signature = { Ik, c0, s0, s1, s2, PubKey0, PubKey1, PubKey2 }\n    //Outputs:\n    //  success (bool) - true/false indicating if signature is valid on message\n    function RingVerify(RingMessage memory message, uint256[] memory signature)\n        public returns (bool success)\n    {\n        //Check Array Lengths\n        require( signature.length >= 6 ); //Minimum size (2 PubKeys) = (2*2+2) = 6\n        require( (signature.length % 2) == 0 ); //data.length must be even\n        \n        //Memory Registers\n        uint256[2] memory pubkey;\n        uint256[2] memory keyimage;\n        uint256 c = signature[1];\n        \n        //Expand Key Image\n        keyimage = ExpandPoint(signature[0]);\n        \n        //Verify Ring\n        uint i = 0;\n        uint256 ring_size = (signature.length - 2) / 2;\n        for (; i < ring_size;) {\n            //Deserialize Point and calculate next Ring Segment\n            pubkey = ExpandPoint(signature[2+ring_size+i]);\n            c = RingSegment(message, c, signature[2+i], pubkey, keyimage);\n            \n            //Increment Counters\n            i = i + 1;\n        }\n\n        success = (c == signature[1]);\n    }\n    \n    function RingVerify_User(address[] memory destination, uint256[] memory value, uint256[] memory signature)\n        public returns (bool success)\n    {\n        return RingVerify(RingMessage(destination, value), signature);\n    }\n}",
  "sourcePath": "/home/ddt/Thesis_global/CarSharing/Thesis/contracts/SignatureOrig.sol",
  "compiler": {
    "name": "solc",
    "version": "0.6.4+commit.1dca32f3.Emscripten.clang"
  },
  "schemaVersion": "3.1.0",
  "updatedAt": "2020-05-26T08:00:56.857Z",
  "devdoc": {
    "methods": {}
  },
  "userdoc": {
    "methods": {}
  }
}