{
  "contractName": "Signature",
  "abi": [
    {
      "anonymous": false,
      "inputs": [
        {
          "indexed": true,
          "internalType": "uint256",
          "name": "",
          "type": "uint256"
        }
      ],
      "name": "E_hashString",
      "type": "event"
    },
    {
      "anonymous": false,
      "inputs": [
        {
          "indexed": true,
          "internalType": "uint256[32]",
          "name": "signature",
          "type": "uint256[32]"
        }
      ],
      "name": "E_ringSignature",
      "type": "event"
    },
    {
      "anonymous": false,
      "inputs": [
        {
          "indexed": true,
          "internalType": "bool",
          "name": "",
          "type": "bool"
        }
      ],
      "name": "E_success",
      "type": "event"
    },
    {
      "inputs": [],
      "name": "ECSignMask",
      "outputs": [
        {
          "internalType": "uint256",
          "name": "",
          "type": "uint256"
        }
      ],
      "stateMutability": "view",
      "type": "function",
      "constant": true
    },
    {
      "inputs": [
        {
          "internalType": "uint256",
          "name": "",
          "type": "uint256"
        }
      ],
      "name": "G1",
      "outputs": [
        {
          "internalType": "uint256",
          "name": "",
          "type": "uint256"
        }
      ],
      "stateMutability": "view",
      "type": "function",
      "constant": true
    },
    {
      "inputs": [],
      "name": "N",
      "outputs": [
        {
          "internalType": "uint256",
          "name": "",
          "type": "uint256"
        }
      ],
      "stateMutability": "view",
      "type": "function",
      "constant": true
    },
    {
      "inputs": [],
      "name": "P",
      "outputs": [
        {
          "internalType": "uint256",
          "name": "",
          "type": "uint256"
        }
      ],
      "stateMutability": "view",
      "type": "function",
      "constant": true
    },
    {
      "inputs": [],
      "name": "a",
      "outputs": [
        {
          "internalType": "uint256",
          "name": "",
          "type": "uint256"
        }
      ],
      "stateMutability": "view",
      "type": "function",
      "constant": true
    },
    {
      "inputs": [
        {
          "internalType": "uint256",
          "name": "",
          "type": "uint256"
        },
        {
          "internalType": "uint256",
          "name": "",
          "type": "uint256"
        }
      ],
      "name": "lookup_pubkey_by_balance",
      "outputs": [
        {
          "internalType": "uint256",
          "name": "",
          "type": "uint256"
        }
      ],
      "stateMutability": "view",
      "type": "function",
      "constant": true
    },
    {
      "inputs": [
        {
          "internalType": "uint256",
          "name": "",
          "type": "uint256"
        }
      ],
      "name": "lookup_pubkey_by_balance_count",
      "outputs": [
        {
          "internalType": "uint256",
          "name": "",
          "type": "uint256"
        }
      ],
      "stateMutability": "view",
      "type": "function",
      "constant": true
    },
    {
      "inputs": [
        {
          "internalType": "uint256",
          "name": "",
          "type": "uint256"
        }
      ],
      "name": "lookup_pubkey_by_balance_populated",
      "outputs": [
        {
          "internalType": "bool",
          "name": "",
          "type": "bool"
        }
      ],
      "stateMutability": "view",
      "type": "function",
      "constant": true
    },
    {
      "inputs": [
        {
          "internalType": "uint256[2]",
          "name": "Pin",
          "type": "uint256[2]"
        }
      ],
      "name": "CompressPoint",
      "outputs": [
        {
          "internalType": "uint256",
          "name": "Pout",
          "type": "uint256"
        }
      ],
      "stateMutability": "nonpayable",
      "type": "function"
    },
    {
      "inputs": [
        {
          "internalType": "uint256",
          "name": "x",
          "type": "uint256"
        }
      ],
      "name": "EvaluateCurve",
      "outputs": [
        {
          "internalType": "uint256",
          "name": "y",
          "type": "uint256"
        },
        {
          "internalType": "bool",
          "name": "onCurve",
          "type": "bool"
        }
      ],
      "stateMutability": "nonpayable",
      "type": "function"
    },
    {
      "inputs": [],
      "name": "getEvaluate",
      "outputs": [
        {
          "internalType": "uint256",
          "name": "",
          "type": "uint256"
        },
        {
          "internalType": "bool",
          "name": "",
          "type": "bool"
        }
      ],
      "stateMutability": "view",
      "type": "function",
      "constant": true
    },
    {
      "inputs": [
        {
          "internalType": "uint256",
          "name": "message",
          "type": "uint256"
        },
        {
          "internalType": "uint256[2]",
          "name": "left",
          "type": "uint256[2]"
        },
        {
          "internalType": "uint256[2]",
          "name": "right",
          "type": "uint256[2]"
        }
      ],
      "name": "HashFunction",
      "outputs": [
        {
          "internalType": "uint256",
          "name": "",
          "type": "uint256"
        }
      ],
      "stateMutability": "nonpayable",
      "type": "function"
    },
    {
      "inputs": [],
      "name": "getHashFunction",
      "outputs": [
        {
          "internalType": "uint256",
          "name": "",
          "type": "uint256"
        }
      ],
      "stateMutability": "nonpayable",
      "type": "function"
    },
    {
      "inputs": [
        {
          "internalType": "uint256[2]",
          "name": "p",
          "type": "uint256[2]"
        }
      ],
      "name": "HashPoint",
      "outputs": [
        {
          "internalType": "uint256[2]",
          "name": "h",
          "type": "uint256[2]"
        }
      ],
      "stateMutability": "nonpayable",
      "type": "function"
    },
    {
      "inputs": [],
      "name": "getHashPoint",
      "outputs": [
        {
          "internalType": "uint256[2]",
          "name": "",
          "type": "uint256[2]"
        }
      ],
      "stateMutability": "nonpayable",
      "type": "function"
    },
    {
      "inputs": [
        {
          "internalType": "uint256",
          "name": "xk",
          "type": "uint256"
        },
        {
          "internalType": "uint256[2]",
          "name": "Pk",
          "type": "uint256[2]"
        }
      ],
      "name": "KeyImage",
      "outputs": [
        {
          "internalType": "uint256[2]",
          "name": "Ix",
          "type": "uint256[2]"
        }
      ],
      "stateMutability": "nonpayable",
      "type": "function"
    },
    {
      "inputs": [
        {
          "internalType": "uint256",
          "name": "message",
          "type": "uint256"
        },
        {
          "internalType": "uint256",
          "name": "alpha",
          "type": "uint256"
        },
        {
          "internalType": "uint256[2]",
          "name": "P0",
          "type": "uint256[2]"
        }
      ],
      "name": "RingStartingSegment",
      "outputs": [
        {
          "internalType": "uint256",
          "name": "c0",
          "type": "uint256"
        }
      ],
      "stateMutability": "nonpayable",
      "type": "function"
    },
    {
      "inputs": [
        {
          "internalType": "uint256",
          "name": "u",
          "type": "uint256"
        },
        {
          "internalType": "uint256",
          "name": "c",
          "type": "uint256"
        },
        {
          "internalType": "uint256",
          "name": "xk",
          "type": "uint256"
        }
      ],
      "name": "SubMul",
      "outputs": [
        {
          "internalType": "uint256",
          "name": "s",
          "type": "uint256"
        }
      ],
      "stateMutability": "nonpayable",
      "type": "function"
    },
    {
      "inputs": [
        {
          "internalType": "uint256",
          "name": "message",
          "type": "uint256"
        },
        {
          "internalType": "uint256[]",
          "name": "data",
          "type": "uint256[]"
        }
      ],
      "name": "RingSign",
      "outputs": [
        {
          "internalType": "uint256[32]",
          "name": "",
          "type": "uint256[32]"
        }
      ],
      "stateMutability": "nonpayable",
      "type": "function"
    },
    {
      "inputs": [],
      "name": "getSignature",
      "outputs": [
        {
          "internalType": "uint256[32]",
          "name": "",
          "type": "uint256[32]"
        }
      ],
      "stateMutability": "view",
      "type": "function",
      "constant": true
    },
    {
      "inputs": [
        {
          "internalType": "uint256",
          "name": "message",
          "type": "uint256"
        },
        {
          "internalType": "uint256[]",
          "name": "signature",
          "type": "uint256[]"
        }
      ],
      "name": "RingVerify",
      "outputs": [
        {
          "internalType": "bool",
          "name": "success",
          "type": "bool"
        }
      ],
      "stateMutability": "nonpayable",
      "type": "function"
    }
  ],
  "bytecode": "0x60806040526040518060400160405280600160ff168152602001600260ff1681525060009060026200003392919062000048565b503480156200004157600080fd5b50620000ba565b82600281019282156200007f579160200282015b828111156200007e578251829060ff169055916020019190600101906200005c565b5b5090506200008e919062000092565b5090565b620000b791905b80821115620000b357600081600090555060010162000099565b5090565b90565b611ab880620000ca6000396000f3fe608060405234801561001057600080fd5b50600436106101375760003560e01c806371b1c161116100b8578063ad141cbc1161007c578063ad141cbc146106c0578063bf42cdbc146106e9578063c9e525df1461072f578063d1a0de611461074d578063d2940fa814610811578063e4bf28c11461090e57610137565b806371b1c1611461054c57806386b9fff0146105c55780638a4e37691461061b5780638b8fbd92146106605780639216084d1461067e57610137565b806339ece286116100ff57806339ece286146103a8578063418ee056146104535780634bcfe7cc1461049f57806351e50bfb146104bd57806366230bd9146104ff57610137565b806308d2cbc61461013c5780630dbe671f146101dd5780631461d4de146101fb5780632428766e146102d557806336b7ce2b1461031b575b600080fd5b61019f6004803603604081101561015257600080fd5b8101908080604001906002806020026040519081016040528092919082600260200280828437600081840152601f19601f820116905080830192505050505050919291929050505061092c565b6040518082600260200280838360005b838110156101ca5780820151818401526020810190506101af565b5050505090500191505060405180910390f35b6101e5610a42565b6040518082815260200191505060405180910390f35b6102bb6004803603604081101561021157600080fd5b81019080803590602001909291908035906020019064010000000081111561023857600080fd5b82018360208201111561024a57600080fd5b8035906020019184602083028401116401000000008311171561026c57600080fd5b919080806020026020016040519081016040528093929190818152602001838360200280828437600081840152601f19601f820116905080830192505050505050509192919290505050610a66565b604051808215151515815260200191505060405180910390f35b610301600480360360208110156102eb57600080fd5b8101908080359060200190929190505050610c71565b604051808215151515815260200191505060405180910390f35b6103926004803603608081101561033157600080fd5b81019080803590602001909291908035906020019092919080604001906002806020026040519081016040528092919082600260200280828437600081840152601f19601f8201169050808301925050505050509192919290505050610c91565b6040518082815260200191505060405180910390f35b610415600480360360608110156103be57600080fd5b810190808035906020019092919080604001906002806020026040519081016040528092919082600260200280828437600081840152601f19601f8201169050808301925050505050509192919290505050610d19565b6040518082600260200280838360005b83811015610440578082015181840152602081019050610425565b5050505090500191505060405180910390f35b6104896004803603604081101561046957600080fd5b810190808035906020019092919080359060200190929190505050610d3e565b6040518082815260200191505060405180910390f35b6104a7610d6c565b6040518082815260200191505060405180910390f35b6104e9600480360360208110156104d357600080fd5b8101908080359060200190929190505050610d76565b6040518082815260200191505060405180910390f35b61052b6004803603602081101561051557600080fd5b8101908080359060200190929190505050610d8e565b60405180838152602001821515151581526020019250505060405180910390f35b6105af6004803603604081101561056257600080fd5b8101908080604001906002806020026040519081016040528092919082600260200280828437600081840152601f19601f8201169050808301925050505050509192919290505050610f0d565b6040518082815260200191505060405180910390f35b610605600480360360608110156105db57600080fd5b81019080803590602001909291908035906020019092919080359060200190929190505050610f6a565b6040518082815260200191505060405180910390f35b610623610ff2565b60405180826020800280838360005b8381101561064d578082015181840152602081019050610632565b5050505090500191505060405180910390f35b61066861103d565b6040518082815260200191505060405180910390f35b6106aa6004803603602081101561069457600080fd5b8101908080359060200190929190505050611061565b6040518082815260200191505060405180910390f35b6106c8611079565b60405180838152602001821515151581526020019250505060405180910390f35b6106f1611097565b6040518082600260200280838360005b8381101561071c578082015181840152602081019050610701565b5050505090500191505060405180910390f35b6107376110e2565b6040518082815260200191505060405180910390f35b6107fb600480360360a081101561076357600080fd5b810190808035906020019092919080604001906002806020026040519081016040528092919082600260200280828437600081840152601f19601f820116905080830192505050505050919291929080604001906002806020026040519081016040528092919082600260200280828437600081840152601f19601f8201169050808301925050505050509192919290505050611106565b6040518082815260200191505060405180910390f35b6108d16004803603604081101561082757600080fd5b81019080803590602001909291908035906020019064010000000081111561084e57600080fd5b82018360208201111561086057600080fd5b8035906020019184602083028401116401000000008311171561088257600080fd5b919080806020026020016040519081016040528093929190818152602001838360200280828437600081840152601f19601f8201169050808301925050505050505091929192905050506111d1565b60405180826020800280838360005b838110156108fb5780820151818401526020810190506108e0565b5050505090500191505060405180910390f35b61091661164c565b6040518082815260200191505060405180910390f35b6109346119d8565b60007f30644e72e131a029b85045b68181585d2833e84879b9709143e1f593f00000018360006002811061096457fe5b6020020151604051602001808281526020019150506040516020818303038152906040528051906020012060001c8161099957fe5b06826000600281106109a757fe5b6020020181815250505b80610a0c576109d0826000600281106109c657fe5b6020020151610d8e565b836001600281106109dd57fe5b60200201819350828152505050816000600281106109f757fe5b602002018051809190600101815250506109b1565b81600060028110610a1957fe5b6020020180518091906001900381525050816025906002610a3b9291906119fa565b5050919050565b7f0c19139cb84c680a6e14116da060561765e05aa45a1c72a34f082305b61f3f5281565b6000600682511015610ae0576040517f08c379a00000000000000000000000000000000000000000000000000000000081526004018080602001828103825260178152602001807f4d6f7265206d69782d696e206b657973206e656564656400000000000000000081525060200191505060405180910390fd5b60006002835181610aed57fe5b0614610b61576040517f08c379a00000000000000000000000000000000000000000000000000000000081526004018080602001828103825260108152602001807f44617461206c656e677468206576656e0000000000000000000000000000000081525060200191505060405180910390fd5b610b696119d8565b610b716119d8565b600084600181518110610b8057fe5b60200260200101519050610ba785600081518110610b9a57fe5b6020026020010151611670565b9150600060028087510381610bb857fe5b04905060008090505b81811015610c1e57610bea8782846002010181518110610bdd57fe5b6020026020010151611670565b9450610c0f8884898460020181518110610c0057fe5b6020026020010151888861180b565b92508080600101915050610bc1565b5085600181518110610c2c57fe5b6020026020010151821494508415157f5e4ebb953a91a628d94d021c5018a8a7d2f7733aad1b28fdb2fa46c08fd29bec60405160405180910390a25050505092915050565b60036020528060005260406000206000915054906101000a900460ff1681565b6000610c9b6119d8565b610ca36119d8565b610cac8461092c565b9050610cb8818661191e565b9050610d016000600280602002604051908101604052809291908260028015610cf6576020028201915b815481526020019060010190808311610ce2575b50505050508661191e565b9150610d0e868383611106565b925050509392505050565b610d216119d8565b610d2a8261092c565b9050610d36818461191e565b905092915050565b60026020528160005260406000208181548110610d5757fe5b90600052602060002001600091509150505481565b6000602754905090565b60046020528060005260406000206000915090505481565b60008060007f30644e72e131a029b85045b68181585d97816a916871ca8d3c208c16d87cfd4780610dbb57fe5b84850990507f30644e72e131a029b85045b68181585d97816a916871ca8d3c208c16d87cfd4780610de857fe5b84820990507f30644e72e131a029b85045b68181585d97816a916871ca8d3c208c16d87cfd4780610e1557fe5b60038208905060007f30644e72e131a029b85045b68181585d97816a916871ca8d3c208c16d87cfd47905060007f0c19139cb84c680a6e14116da060561765e05aa45a1c72a34f082305b61f3f52905060405160208152602080820152602060408201528360608201528160808201528260a082015260208160c083600060056107d05a03f18060008114610ea957610eae565b60c083fd5b508151965050507f30644e72e131a029b85045b68181585d97816a916871ca8d3c208c16d87cfd4780610edd57fe5b858609831493508460288190555083602960006101000a81548160ff021916908315150217905550505050915091565b600081600060028110610f1c57fe5b6020020151905060018083600160028110610f3357fe5b6020020151161415610f65577f8000000000000000000000000000000000000000000000000000000000000000811790505b919050565b60007f30644e72e131a029b85045b68181585d2833e84879b9709143e1f593f000000180610f9457fe5b8284099050807f30644e72e131a029b85045b68181585d2833e84879b9709143e1f593f00000010390507f30644e72e131a029b85045b68181585d2833e84879b9709143e1f593f000000180610fe657fe5b81850890509392505050565b610ffa611a3a565b6005602080602002604051908101604052809291908260208015611033576020028201915b81548152602001906001019080831161101f575b5050505050905090565b7f30644e72e131a029b85045b68181585d97816a916871ca8d3c208c16d87cfd4781565b6000816002811061106e57fe5b016000915090505481565b600080602854602960009054906101000a900460ff16915091509091565b61109f6119d8565b60256002806020026040519081016040528092919082600280156110d8576020028201915b8154815260200190600101908083116110c4575b5050505050905090565b7f30644e72e131a029b85045b68181585d2833e84879b9709143e1f593f000000181565b60007f30644e72e131a029b85045b68181585d2833e84879b9709143e1f593f0000001848460006002811061113757fe5b60200201518560016002811061114957fe5b60200201518560006002811061115b57fe5b60200201518660016002811061116d57fe5b602002015160405160200180868152602001858152602001848152602001838152602001828152602001955050505050506040516020818303038152906040528051906020012060001c816111be57fe5b0660278190555060275490509392505050565b6111d9611a3a565b600682511015611251576040517f08c379a000000000000000000000000000000000000000000000000000000000815260040180806020018281038252601a8152602001807f4e6f7420656e6f756768207369676e61747572652076616c756500000000000081525060200191505060405180910390fd5b6020825111156112c9576040517f08c379a000000000000000000000000000000000000000000000000000000000815260040180806020018281038252600d8152602001807f546f6f206d75636820646174610000000000000000000000000000000000000081525060200191505060405180910390fd5b600060028351816112d657fe5b061461134a576040517f08c379a00000000000000000000000000000000000000000000000000000000081526004018080602001828103825260128152602001807f556e6576656e2064617461206c656e677468000000000000000000000000000081525060200191505060405180910390fd5b60006002808451038161135957fe5b0490506000600290505b835181101561139f5783818151811061137857fe5b60200260200101516005826020811061138d57fe5b01819055508080600101915050611363565b6113a76119d8565b6113af6119d8565b6000846001886000815181106113c157fe5b602002602001015101816113d157fe5b06935061140987886000815181106113e557fe5b60200260200101518760020101815181106113fc57fe5b6020026020010151611670565b92506114298760018151811061141b57fe5b602002602001015184610d19565b915061143482610f0d565b600560006020811061144257fe5b018190555061147c88888960008151811061145957fe5b60200260200101516002018151811061146e57fe5b602002602001015185610c91565b9050600084141561149c5780600560016020811061149657fe5b01819055505b5b866000815181106114aa57fe5b6020026020010151841461152c576114d987858760020101815181106114cc57fe5b6020026020010151611670565b92506114fe88828987600201815181106114ef57fe5b6020026020010151868661180b565b905060018401935084841415611527576000935080600560016020811061152157fe5b01819055505b61149d565b611575878860008151811061153d57fe5b60200260200101516002018151811061155257fe5b6020026020010151828960018151811061156857fe5b6020026020010151610f6a565b60058860008151811061158457fe5b60200260200101516002016020811061159957fe5b018190555060056040518082602080156115c8576020028201915b8154815260200190600101908083116115b4575b505091505060405180910390207f16fb3890249223009341b58bd1e6f216c13399fea209d6088e50e53fe4e1273960405160405180910390a2600560208060200260405190810160405280929190826020801561163a576020028201915b815481526020019060010190808311611626575b50505050509550505050505092915050565b7f800000000000000000000000000000000000000000000000000000000000000081565b6116786119d8565b7f8000000000000000000000000000000000000000000000000000000000000000198216816000600281106116a957fe5b6020020181815250506000806116cf836000600281106116c557fe5b6020020151610d8e565b809350819250505081611711576000836000600281106116eb57fe5b60200201818152505060008360016002811061170357fe5b602002018181525050611804565b60007f80000000000000000000000000000000000000000000000000000000000000008516146117a1576001808216141561176257808360016002811061175457fe5b60200201818152505061179c565b807f30644e72e131a029b85045b68181585d97816a916871ca8d3c208c16d87cfd47038360016002811061179257fe5b6020020181815250505b611803565b600180821614156117ea57807f30644e72e131a029b85045b68181585d97816a916871ca8d3c208c16d87cfd4703836001600281106117dc57fe5b602002018181525050611802565b80836001600281106117f857fe5b6020020181815250505b5b5b5050919050565b60006118156119d8565b61181d6119d8565b6118256119d8565b8560006002811061183257fe5b60200201518660016002811061184457fe5b60200201518360006002811061185657fe5b602002018460016002811061186757fe5b602002018281525082815250505061187e8261092c565b905061188a828961191e565b91506118d360006002806020026040519081016040528092919082600280156118c8576020028201915b8154815260200190600101908083116118b4575b50505050508861191e565b92506118df8284611974565b91506118eb818861191e565b90506118f7858961191e565b92506119038184611974565b9050611910898383611106565b935050505095945050505050565b6119266119d8565b6040518351815260208401516020820152826040820152604081606083600060076107d05a03f1806000811461195b5761195d565bfe5b508151835260208201516020840152505092915050565b61197c6119d8565b60405183518152602084015160208201528251604082015260208301516060820152604081608083600060066107d05a03f180600081146119bc576119c1565b608083fd5b508151835260208201516020840152505092915050565b6040518060400160405280600290602082028036833780820191505090505090565b8260028101928215611a29579160200282015b82811115611a28578251825591602001919060010190611a0d565b5b509050611a369190611a5d565b5090565b604051806104000160405280602090602082028036833780820191505090505090565b611a7f91905b80821115611a7b576000816000905550600101611a63565b5090565b9056fea2646970667358221220cd1ae97fb1663f9aa2df7a0cee59e3b3738681f641cd96d8b0e85ef2b2252b9d64736f6c63430006040033",
  "source": "pragma solidity ^0.6.4;\n\ncontract Signature {\n\n     //alt_bn128 constants     \n    uint256[2] public G1 = [1,2];\n    uint256 constant public N = 0x30644e72e131a029b85045b68181585d2833e84879b9709143e1f593f0000001;\n    uint256 constant public P = 0x30644e72e131a029b85045b68181585d97816a916871ca8d3c208c16d87cfd47;\n\n    //Used for Point Compression/Decompression\n    uint256 constant public ECSignMask = 0x8000000000000000000000000000000000000000000000000000000000000000;\n    uint256 constant public a = 0xc19139cb84c680a6e14116da060561765e05aa45a1c72a34f082305b61f3f52; // (p+1)/4\n\n    //Convenience tables for looking up acceptable mix-in keys\n    mapping (uint256 => uint256[]) public lookup_pubkey_by_balance;\n    mapping (uint256 => bool) public lookup_pubkey_by_balance_populated;\n    mapping (uint256 => uint256) public lookup_pubkey_by_balance_count;\n\n    //Debug variables\n    uint256[32] ring_signature;\n    uint256[2]  hash_point;\n    uint256     hash_function;\n    uint256     evaluate_y;\n    bool        x_on_curve;\n\n\n    //Events\n\n    event E_hashString(uint256 indexed);\n    event E_ringSignature(uint[32] indexed signature);\n    event E_success(bool indexed);\n\n    //=== RingVerifyN ===\n    //Inputs:\n    //  destination (address[]) - list of payable ETH addresses\n    //  value (uint256[]) - list of values corrosponding to the destination\n    //  signature (uint256[2*N+2]) - ring signature\n    //      signature[0] - keyimage for private key (compressed)\n    //      signature[1] - c0 - start of ring signature - scaler for PublicKey[0]\n    //      signature[2     ... 2+(N-1)] - s0...s[N-1], scalar for G1\n    //      signature[2+N   ... 2*N+1  ] - Public Keys (compressed) - total of N Public Keys\n    //      signature[2*N+2 ... 31     ] - Padding (0)\n    //      e.g. N=3; signature = { Ik, c0, s0, s1, s2, PubKey0, PubKey1, PubKey2 }\n    //Outputs:\n    //  success (bool) - true/false indicating if signature is valid on message\n\n    //Base EC Functions\n    function ecAdd(uint256[2] memory p0, uint256[2] memory p1)\n        internal returns (uint256[2] memory p2)\n    {\n        assembly {\n            //Get Free Memory Pointer\n            let p := mload(0x40)\n\n            //Store Data for ECAdd Call\n            mstore(p, mload(p0))\n            mstore(add(p, 0x20), mload(add(p0, 0x20)))\n            mstore(add(p, 0x40), mload(p1))\n            mstore(add(p, 0x60), mload(add(p1, 0x20)))\n\n            //Call ECAdd: call contract at address a with input mem[in..(in+insize)) providing g gas and v wei and output area mem[out..(out+outsize))\n            //returning 0 on error (eg. out of gas) and 1 on success\n            let success := call(sub(gas(),2000), 0x06, 0, p, 0x80, p, 0x40)\n\n            // Use \"invalid\" to make gas estimation work\n \t\t\tswitch success case 0 { revert(p, 0x80) }\n\n \t\t\t//Store Return Data\n \t\t\tmstore(p2, mload(p))\n \t\t\tmstore(add(p2, 0x20), mload(add(p,0x20)))\n        }\n    }\n\n    function ecMul(uint256[2] memory p0, uint256 s)\n        internal returns (uint256[2] memory p1)\n    {\n        assembly {\n            //Get Free Memory Pointer\n            let p := mload(0x40)\n\n            //Store Data for ECMul Call\n            mstore(p, mload(p0))\n            mstore(add(p, 0x20), mload(add(p0, 0x20)))\n            mstore(add(p, 0x40), s)\n\n            //Call ECAdd\n            let success := call(sub(gas(),2000), 0x07, 0, p, 0x60, p, 0x40)\n\n            // Use \"invalid\" to make gas estimation work\n \t\t\tswitch success case 0 { invalid() }\n\n \t\t\t//Store Return Data\n \t\t\tmstore(p1, mload(p))\n \t\t\tmstore(add(p1, 0x20), mload(add(p,0x20)))\n        }\n    }\n\n    function CompressPoint(uint256[2] memory Pin)\n        public returns (uint256 Pout)\n    {\n        //Store x value\n        Pout = Pin[0];\n\n        //Determine Sign\n        if ((Pin[1] & 0x1) == 0x1) {\n            Pout |= ECSignMask;\n        }\n    }\n\n    function EvaluateCurve(uint256 x)\n        public returns (uint256 y, bool onCurve)\n    {\n        uint256 y_squared = mulmod(x,x, P);\n        y_squared = mulmod(y_squared, x, P);\n        y_squared = addmod(y_squared, 3, P);\n\n        uint256 p_local = P;\n        uint256 a_local = a;\n\n        assembly {\n            //Get Free Memory Pointer\n            let p := mload(0x40)\n\n            //Store Data for Big Int Mod Exp Call\n            mstore(p, 0x20)                 //Length of Base\n            mstore(add(p, 0x20), 0x20)      //Length of Exponent\n            mstore(add(p, 0x40), 0x20)      //Length of Modulus\n            mstore(add(p, 0x60), y_squared) //Base\n            mstore(add(p, 0x80), a_local)   //Exponent\n            mstore(add(p, 0xA0), p_local)   //Modulus\n            //Call Big Int Mod Exp\n            let success := call(sub(gas(),2000), 0x05, 0, p, 0xC0, p, 0x20)\n\n            // Use \"invalid\" to make gas estimation work\n \t\t\tswitch success case 0 { revert(p, 0xC0) }\n\n \t\t\t//Store Return Data\n \t\t\ty := mload(p)\n        }\n        //Check Answer\n        onCurve = (y_squared == mulmod(y, y, P));\n        evaluate_y = y;\n        x_on_curve = onCurve;\n\n    }\n\n    function getEvaluate() public view returns(uint256, bool){\n        return(evaluate_y, x_on_curve);\n    }\n\n    function ExpandPoint(uint256 Pin)\n        internal returns (uint256[2] memory Pout)\n    {\n        //Get x value (mask out sign bit)\n        Pout[0] = Pin & (~ECSignMask);\n\n        //Get y value\n        bool onCurve;\n        uint256 y;\n        (y, onCurve) = EvaluateCurve(Pout[0]);\n\n        //TODO: Find better failure case for point not on curve\n        if (!onCurve) {\n            Pout[0] = 0;\n            Pout[1] = 0;\n        }\n        else {\n            //Use Positive Y\n            if ((Pin & ECSignMask) != 0) {\n                if ((y & 0x1) == 0x1) {\n                    Pout[1] = y;\n                } else {\n                    Pout[1] = P - y;\n                }\n            }\n            //Use Negative Y\n            else {\n                if ((y & 0x1) == 0x1) {\n                    Pout[1] = P - y;\n                } else {\n                    Pout[1] = y;\n                }\n            }\n        }\n    }\n\n    //=====Ring Signature Functions=====\n    function HashFunction(uint256 message, uint256[2] memory left, uint256[2] memory right)\n        public returns (uint256)\n    {\n        hash_function = (uint256(keccak256(abi.encodePacked(message, left[0], left[1], right[0], right[1]))) % N);\n        return hash_function;\n    }\n\n    function getHashFunction() public returns(uint256){\n        return hash_function;\n    }\n\n    //Return H = alt_bn128 evaluated at keccak256(p)\n    function HashPoint(uint256[2] memory p)\n        public returns (uint256[2] memory h)\n    {\n        bool onCurve;\n        h[0] = uint256(keccak256(abi.encode(p[0]))) % N;\n\n        while(!onCurve) {\n            (h[1], onCurve) = EvaluateCurve(h[0]);\n            h[0]++;\n        }\n        h[0]--;\n        hash_point = h;\n    }\n\n    function getHashPoint() public returns(uint256[2] memory){\n        return hash_point;\n    }\n\n    function KeyImage(uint256 xk, uint256[2] memory Pk)\n        public returns (uint256[2] memory Ix)\n    {\n        //Ix = xk * HashPoint(Pk)\n        Ix = HashPoint(Pk);\n        Ix = ecMul(Ix, xk);\n    }\n\n    function RingStartingSegment(uint256 message, uint256 alpha, uint256[2] memory P0)\n        public returns (uint256 c0)\n    {\n        //Memory Registers\n        uint256[2] memory left;\n        uint256[2] memory right;\n\n        right = HashPoint(P0);\n        right = ecMul(right, alpha);\n        left = ecMul(G1, alpha);\n\n        c0 = HashFunction(message, left, right);\n    }\n    //c0 needs to be c0*nonce\n    function RingSegment(uint256 message, uint256 c0, uint256 s0, uint256[2] memory P0, uint256[2] memory Ix)\n        internal returns (uint256 c1)\n    {\n        //Memory Registers\n        uint256[2] memory temp;\n        uint256[2] memory left;\n        uint256[2] memory right;\n\n        //Deserialize Point\n        (left[0], left[1]) = (P0[0], P0[1]);\n        right = HashPoint(left);\n\n        //Calculate left = c*nonce*P0 + s0*G1)\n        left = ecMul(left, c0);\n        temp = ecMul(G1, s0);\n        left = ecAdd(left, temp);\n\n        //Calculate right = s0*H(P0) + c*Ix\n        right = ecMul(right, s0);\n        temp = ecMul(Ix, c0);\n        right = ecAdd(right, temp);\n\n        c1 = HashFunction(message, left, right);\n    }\n    //SubMul = (u - c*xk) % N\n    function SubMul(uint256 u, uint256 c, uint256 xk)\n        public returns (uint256 s)\n    {\n        s = mulmod(c, xk, N);\n        s = N - s;\n        s = addmod(u, s, N);\n    }\n\n    //=== RingSignature ===\n    //Inputs:\n    //  message (RingMessage) - to be signed by the ring signature\n    //  data (uint256[2*N+2]) - required data to form the signature where N is the number of Public Keys (ring size)\n    //      data[0] - index from 0 to (N-1) specifying which Public Key has a known private key\n    //      data[1] - corresponding private key for PublicKey[k]\n    //      data[2   ... 2+(N-1)] - Random Numbers - total of N random numbers\n    //      data[2+N ... 2*N+1  ] - Public Keys (compressed) - total of N Public Keys\n    //      e.g. N=3; data = {k, PrivateKey_k, random0, random1, random2, PubKey0, PubKey1, PubKey2 }\n    //\n    //Outputs:\n    //  signature (uint256[32]) - resulting signature\n    //      signature[0] - keyimage for private key (compressed)\n    //      signature[1] - c0 - start of ring signature - scaler for PublicKey[0]\n    //      signature[2     ... 2+(N-1)] - s0...s[N-1], scalar for G1\n    //      signature[2+N   ... 2*N+1  ] - Public Keys (compressed) - total of N Public Keys\n    //      signature[2*N+2 ... 31     ] - Padding (0)\n    //      e.g. N=3; signature = { Ik, c0, s0, s1, s2, PubKey0, PubKey1, PubKey2 }\n\n    function RingSign(uint256 message, uint256[] memory data)\n        public returns (uint256[32] memory)\n    {\n        //Check Array Lengths\n        require(data.length >= 6, \"Not enough signature value\"); //Minimum size (2 PubKeys) = (2*2+2) = 6\n        require(data.length <= 32, \"Too much data\"); //Max size - will only output 32 uint256's\n        require((data.length % 2) == 0, \"Uneven data length\"); //data.length must be even\n        uint256 ring_size = (data.length - 2) / 2;\n        uint i;\n\n        //Copy Random Numbers (most will become s-values) and Public Keys\n        for (i = 2; i < data.length; i++) {\n            ring_signature[i] = data[i];\n        }\n\n        //Memory Registers\n        uint256[2] memory pubkey;\n        uint256[2] memory keyimage;\n        uint256 c;\n\n        //Setup Indices\n        i = (data[0] + 1) % ring_size;\n\n        //Calculate Key Image\n        pubkey = ExpandPoint(data[2+ring_size+data[0]]);//Check whether correctly expanded\n        keyimage = KeyImage(data[1],  pubkey);\n        ring_signature[0] = CompressPoint(keyimage);\n\n        //Calculate Starting c = hash( message, u*G1, u*HashPoint(Pk) )\n        c = RingStartingSegment(message, data[2+data[0]], pubkey);\n        if (i == 0) {\n            ring_signature[1] = c;\n        }\n\n        for (; i != data[0];) {\n            //Deserialize Point and calculate next Ring Segment\n            pubkey = ExpandPoint(data[2+ring_size+i]);\n\n            c = RingSegment(message, c, data[2+i], pubkey, keyimage);\n\n            //Increment Counters\n            i = i + 1;\n\n            // Roll counters over\n            if (i == ring_size) {\n                i = 0;\n                ring_signature[1] = c;\n            }\n        }\n        //Calculate s s.t. alpha*G1 = c1*P1 + s1*G1 = (c1*x1 + s1) * G1\n        //s = alpha - c1*x1*nonce\n        ring_signature[2+data[0]] = SubMul(data[2+data[0]], c, data[1]);\n        emit E_ringSignature(ring_signature);\n        return ring_signature;\n    }\n\n    function getSignature() public view returns(uint[32] memory){\n        return ring_signature;\n    }\n\n    //=== RingVerify ===\n    //Inputs:\n    //  message (RingMessage) - signed by the ring signature\n    //  signature (uint256[2*N+2]) - ring signature\n    //      signature[0] - keyimage for private key (compressed)\n    //      signature[1] - c0 - start of ring signature - scaler for PublicKey[0]\n    //      signature[2     ... 2+(N-1)] - s0...s[N-1], scalar for G1\n    //      signature[2+N   ... 2*N+1  ] - Public Keys (compressed) - total of N Public Keys\n    //      signature[2*N+2 ... 31     ] - Padding (0)\n    //      e.g. N=3; signature = { Ik, c0, s0, s1, s2, PubKey0, PubKey1, PubKey2 }\n    //Outputs:\n    //  success (bool) - true/false indicating if signature is valid on message\n    function RingVerify(uint256 message, uint256[] memory signature)\n        public returns (bool success)\n    {\n        //Check Array Lengths\n        require(signature.length >= 6, 'More mix-in keys needed'); //Minimum size (2 PubKeys) = (2*2+2) = 6\n        require(signature.length % 2 == 0, 'Data length even'); //data.length must be even\n\n        //Memory Registers\n        uint256[2] memory pubkey;\n        uint256[2] memory keyimage;\n        uint256 c = signature[1];\n\n        //Expand Key Image\n        keyimage = ExpandPoint(signature[0]);\n\n        //Verify Ring\n        uint256 ring_size = (signature.length - 2) / 2;\n        for (uint i = 0; i < ring_size;i++) {\n            //Deserialize Point and calculate next Ring Segment\n            pubkey = ExpandPoint(signature[2+ring_size+i]);\n            c = RingSegment(message, c, signature[2+i], pubkey, keyimage);\n        }\n\n        success = (c == signature[1]);\n        emit E_success(success);\n    }\n}",
  "sourcePath": "/home/ddt/Thesis_global/CarSharing/Thesis/contracts/Signature.sol",
  "compiler": {
    "name": "solc",
    "version": "0.6.4+commit.1dca32f3.Emscripten.clang"
  },
  "schemaVersion": "3.1.0",
  "updatedAt": "2020-05-26T16:15:04.537Z",
  "networkType": "ethereum",
  "devdoc": {
    "methods": {}
  },
  "userdoc": {
    "methods": {}
  }
}